:100000000810002039010000E9250000C721000088
:10001000E9250000E9250000E9250000E9250000A8
:10002000E9250000E92500008C290000E9250000F1
:10003000E92500003C290000E9250000E925000031
:10004000E9250000E9250000E9250000E925000078
:10005000E9250000E9250000E9250000E925000068
:10006000E9250000E9250000E9250000E925000058
:10007000E9250000E9250000E9250000E925000048
:10008000E9250000E9250000E9250000E925000038
:10009000E9250000E9250000E9250000E925000028
:1000A000E9250000E9250000E9250000E925000018
:1000B000E9250000E9250000E9250000E925000008
:1000C000E9250000E9250000E9250000E9250000F8
:1000D000E9250000E9250000E9250000E9250000E8
:1000E000E9250000E9250000E9250000E9250000D8
:1000F000E9250000E9250000E9250000E9250000C8
:10010000E9250000E9250000E9250000E9250000B7
:10011000E9250000E9250000E9250000E9250000A7
:10012000E9250000E9250000E9250000E925000097
:04013000E9250000BD
:1001380008B50D4B83F30A880C4B09A1D1E90001DE
:10014800C3E9000101F022FD00F068FC01F010FD98
:1001580001F0E8FC01F0FAFC00F0F2FBAFF30080DC
:10016800A5EDF5FEA5EDF5FE08000020081000201D
:100178000348044B834202D0034B03B1184770472E
:10018800441300204413002000000000064B0749D8
:10019800C91A891048BF0131491003D0044B0BB16B
:1001A80001481847704700BF44130020441300203B
:1001B8000000000010B5064C237843B9FFF7D8FFBC
:1001C800044B13B10448AFF300800123237010BD22
:1001D8005E10002000000000D82A000008B5054B7A
:1001E8001BB105490548AFF30080BDE80840FFF79B
:1001F800CDBF00BF0000000010100020D82A00006A
:100208000023024A1370024A1370704760100020DE
:100218005F10002038B503780446042B0D463FD004
:1002280009D8012B0BD0032B4FF018033CD040F614
:1002380003102B7038BD182B36D0432BF4E7224B14
:100248004278197801BB012A03D0152340F604101F
:10025800EFE71A70A3781344FF2BF6D10022802110
:10026800E01C02F047F994F88320C0F30F239A4268
:1002780021D194F88430C0B2834220D1134B6278E4
:1002880000201A700623D4E7104B1B7893420ED037
:100298000133DBB29342DDD0152340F60510C8E7E1
:1002A800062340F60710C4E740F60810C1E7062306
:1002B80040F60610BDE7152340F60210B9E71523EE
:1002C80040F60110B5E700BF5F1000206010002065
:1002D8000149024800F03AB85828000028100020C8
:1002E80010B592B047221849684602F077FA01F033
:1002F80041FF0A22C0F30363092B8CBF3733303325
:100308008DF81430C0F30343B3FBF2F102FB113351
:1003180000F00F0030338DF81730B0FBF2F302FB1A
:10032800130001F13004303003F130018DF8191059
:100338008DF81A000122472168468DF8164000F012
:1003480011FD002012B010BD682800002DE9F04F03
:100358000024ADF5257D4FF49472064688465AA8C8
:1003680021468DF80B4002F056FA2146682204A86F
:1003780002F051FA214668221EA802F04CFA3C27E6
:1003880000F0E4FB01254FF0FF34DFF82093DFF89D
:1003980020A3DFF820B36B1E052B09D8DFE813F084
:1003A8000C001E0041005B005401C0000425F2E768
:1003B800FFF796FF0125EEE74FF47A7103A801F0E5
:1003C8008EFF38B99DF80C30312B05D0322B0CBF7D
:1003D800052500253C27DEE70225FBE70122112140
:1003E800AF4800F0BFFC2C220021304602F013FA7F
:1003F80020231EAA04A95AA800F056FE0025FF23B0
:10040800012105207370758000F0C2FB00F0F6FC36
:1004180018B10121284600F067FDFFF7F1FE03251A
:10042800B9E7432001F01BFE00214FF47A7000F079
:10043800AFFB00F0E3FC18B900F0D0FB0028F8D0BF
:1004480000F0DCFC0028B1D1013FA4D1182001F054
:1004580006FE00259FE7002185220DF1E10002F04C
:10046800DAF9002140F6B83000F092FB00F0C6FC43
:1004780088B34FF47A730093012303AA19460DF148
:10048800E10000F0DFFC9DF8E130012B0DD140F6D2
:10049800B832842100920DF1E20003AA00F0D2FCE8
:1004A800039B0446842B1AD1D8B90DF10B010DF129
:1004B800E100FFF7AFFE40F60713984204461AD151
:1004C800B378A3B1F37893B106259DF80B001828EB
:1004D80008BF062508E000F081FB0028C6D040F2DE
:1004E800047415208DF80B0001F0B9FD53E71823AB
:1004F8008DF80B30E8E70028E7D19DF8E130012BB3
:10050800E3D180233146CDF8008039AA5AA800F0FB
:1005180005FE04460028D8D018238DF80B30D4E700
:100528000121002000F0E0FC01210A2000F030FB4E
:100538009DF80B300122062B08D140F607139C4288
:1005480004D11B21574800F00DFC82E71A215046C0
:1005580000F008FCA4F51063B3F5E06F4FF001025A
:1005680013D21121504800F0FDFB40F606139C42BF
:1005780013DCB4F5106F10D0A4F60213042B4FD877
:10058800DFE803F050484C5254001021584600F060
:10059800E9FB40F606139C421ADC9DF80B309F2BB2
:1005A8004FEA13108CBF3730303000F013FC9DF841
:1005B8000B0000F00F0009288CBF3730303000F0F6
:1005C80009FC0D2000F006FC0A2000F003FC40E7BF
:1005D800A4F58053013B092BDFD8A4F58053013BD8
:1005E800092BDAD801A252F823F000BF490600000F
:1005F800A3050000A30500004D0600003D0600000D
:1006080045060000490600004106000039060000C2
:100618004906000021238DF80B30BEE72223FAE7B4
:100628002323F8E72423F6E72523F4E72723F2E733
:100638004123F0E74323EEE74423ECE74523EAE7C9
:100648004F23E8E75023E6E7B37823B3F37813B3EF
:1006580033785A070AD5B06A01F090FD00283FF4B4
:10066800F8AE4FF4004000F00BF9F2E69B070DD509
:10067800756801F07FFD854204D94FF40040716A26
:1006880000F0BAF80122132148465CE740F2012045
:1006980000F032FAF6E740F2032000F02DFAD8E62F
:1006A80018290000FD280000D2280000AF2800000B
:1006B800E3280000C2280000F0B5421ED11C034602
:1006C80085B018D86E460D4C04F1100735462068E1
:1006D8006168083403C5BC422E46F7D104A90F331C
:1006E80011F8014D12F8010F844204D19A42F7D152
:1006F800012005B0F0BD0020FBE700BF292900005C
:10070800F0B50368044603F16043B3F5803F4FF04A
:1007180000009FB029D8826A636816699E4224D86F
:10072800B3F5402F21D8656B06F14003AB425ED884
:10073800B5F5402F5BD82846FFF7BEFF002856D0F6
:10074800284601F0FDFC80B16B6973B1022B0ED114
:10075800AB69C4F1040119444FF0FF32204601F09F
:1007680027F8244BC31A584258411FB0F0BD40F235
:10077800046328460293FFF79FFF08B90020F4E7B7
:1007880000235F6B3846FFF797FF0028F6D0A6F1E5
:1007980050039F42F2D8284603A901F0D8FC00284C
:1007A800ECD0039DAE42E9D8AC42E7D8B5F5402F6E
:1007B800E4D804A801F0E1FE21462A1B04A801F0B0
:1007C800E6FE04A801F0E5FE01F080F8044601F019
:1007D80095F823460090294605F1200204A800F068
:1007E800FBFF02900298B0FA80F04009BDE70120B3
:1007F800BBE700BFE320BBDE70B54FF0FF3290B01F
:1008080005460C4600F0D4FF1A4B98422ED11C2204
:10081800002101A801F0FFFF174B29466846043C58
:10082800009301F096FF2146684601F092FF684662
:1008380001F098FF01F024FC0646B8B940F2022006
:1008480000F04EF91C22314609A801F0E4FF0B4BD9
:10085800294608A8089301F07CFF08A8214601F062
:1008680078FF08A801F07EFF01F00AFC002010B014
:1008780070BD00BFE320BBDE010005430100064355
:1008880030B5044691B01C22002101A801F0C3FF35
:10089800114B21466846009301F05BFF684601F062
:1008A80061FF01F0EDFB054698B940F2022000F027
:1008B80017F91C22294609A801F0ADFF074B08A823
:1008C8002146089301F045FF08A801F04BFF01F00D
:1008D800D7FB002011B030BD0000024300000343E5
:1008E80010B58CB01C220446002105A801F093FF26
:1008F8000A4B0194049301230293094B01A904A80C
:10090800039301F01CFF04A801F02CFF01F0B8FBD1
:10091800B0FA80F040090CB010BD00BF00000843D9
:100928000400002040B139B100230B60034B036081
:100938000B6843F400530B60704700BF1424004059
:1009480013B501A801F028FA9DF80530012B27D12D
:100958002B4A936DDB0313D4536B23F4FF0323F467
:10096800FE4343F4BC1343F4A0635363136B23F4B3
:10097800704343F440431363136B43F4E06313631E
:100988009DF8043063B94FF000531B681D4B1B687A
:100998001D4B1B681D4B1B681D4B1B681D4B1B68A3
:1009A8001D4AD2F8803043F00303C2F8803001F0CA
:1009B800F8FB00F07FF801F04DFB01F04DFB18B19A
:1009C8004FF4017000F098F8FFF782FC044601F03C
:1009D80045FB1CB140F203739C4206D140F2012052
:1009E80000F08AF84FF4017005E0A4F20574012CB8
:1009F800F8D840F2032000F07FF8002002B010BDC4
:100A080000C00040004000200080002000C00020FE
:100A1800000001200040012000800040012307B5AC
:100A28008DF806308DF807304FF04023D3F8943016
:100A38005A060AD500F074F8A0F2022080B20728FE
:100A480003D8C923C340DB0702D400F0AFFA20B1B2
:100A580000238DF806308DF807304FF480435B682B
:100A6800013308D14FF4027000F03AF800238DF8F2
:100A780006308DF807309DF8073063B14FF4804099
:100A8800FFF73EFE8DF806009DF806301BB94FF4BF
:100A9800027000F025F89DF806302BB14FF4804025
:100AA800034B986001F081FB03B05DF804FB00BFC5
:100AB80000ED00E04CF23C32014B5A80704700BF19
:100AC800000000204AF6C030044B5B8823F00F0377
:100AD8009BB21B1A58425841704700BF00000020C3
:100AE800044A08B51080FFF7EDFF10B94FF20F0365
:100AF800538008BD0000002008B5FFF7F1FFBFF3E1
:100B08004F8F0549054BCA6802F4E0621343CB6076
:100B1800BFF34F8F00BFFDE700ED00E00400FA05CA
:100B28004FF20F01084B5A888A4201D11888704742
:100B38003AB91B8840F20220012B18BF4FF400700D
:100B480070474FF400707047000000201FB500F098
:100B5800E9F94FF47A23B0FBF3F00B4B0F2218603E
:100B680000210DF1010001F056FE01238DF800303F
:100B780040F2FF3369460548ADF8023001F053FDF5
:100B880005B05DF804FB00BF54100020008004404D
:100B980030B50D4D0D4A2D68536A15FB00F515FA51
:100BA80083F09CB280B2A0422CBF00240124084BE1
:100BB8001880084B1C7011B1536A8342FCD1012381
:100BC80005494B61936130BD5410002000800440FA
:100BD8005C1000206110002000A00440094B0A4A64
:100BE8005869127800F001000AB108B9704738B99D
:100BF800586A064B1B88984234BF00200120704772
:100C08000120704700800440611000205C10002023
:100C18002DE9F0410125DFF81C813E4BD8F8002072
:100C28003D4F02F13C01996002F124037B627B6035
:100C380002F580535D6040F6AA630024536141F2D7
:100C48000503364E364802F500519460D465D360EA
:100C58001461D461D4648864C6F8AC45C6F8C44548
:100C6800C6F8BC45C6F8B445C6F8B845D36093681D
:100C7800936000F057F92B4B29461B6FC3F3802371
:100C88002B44B0FBF3F24FF4E11302F5E1425201B9
:100C9800B2FBF3F2244B203A03EAC203D8F800204F
:100CA8002846D3612B46042200F07EFF2B462A46B5
:100CB8002146284600F078FF1423C6F8AC354FF0DB
:100CC80001130522C6F8C435D8F80030C6F8BC555B
:100CD8005A614FF0F0534FF48021144A55609360E5
:100CE800134B54629463146454651960023114669A
:100CF800D465176759600321A3F50053C2F89040E3
:100D0800C2F88C4059630223956402F5805213613E
:100D1800BDE8F08124130020E412002000C0034045
:100D2800FFFF010000800040F8FF7F000000044042
:100D38000040044034130020084B586B10F00200A8
:100D480006D002229A6203F5005301205A637047C5
:100D5800DB6A9B07FBD40222014BF6E70000044044
:100D68000020044070B54E1E7E2E0446154622D83B
:100D7800FFF7E2FF10B32046124B214410F8012B75
:100D8800884203F8012BF9D10F4B1A8866F30E122B
:100D98001A800E4AC2F8A030022393640DB90020CD
:100DA80070BDFFF7C9FF0028FBD0094B1A6893698B
:100DB8009B06FCD5F3E741F20310F1E741F2062068
:100DC800EEE700BF6210002024130020000004405A
:100DD80034130020014608B5FFF7AEFF0028FBD00A
:100DE800054B1B689A695006FCD5D9639A69920627
:100DF800FCD5002008BD00BF341300200E4A0F4B5D
:100E0800106840F20112DB6E934205D190B10023C5
:100E1800C0F500701844704740F2022293420EBF9A
:100E28004FF48073064A9B1A984202D0F0D2181ADF
:100E380070470020704700BF581000200000044091
:100E4800E21000202DE9F843089D04460E46174697
:100E5800F3B9FFF7D3FFB04228BF304600214FF067
:100E680001084FF002091D4A054604EB000C1368FF
:100E7800DFF870E01A4864451CD101B1136007B16E
:100E88003D6041F20420AE4298BF0020BDE8F883DF
:100E98002DB1FFF75BFE00212846FFF779FEFFF72B
:100EA800ADFFB042D5D2002DF9D0FFF797FE00284C
:100EB800F5D0CEE71EF803100133B3F5007F04F830
:100EC800011B04D10023C0F810900121D3E7B3F52A
:100ED800807F08BFC0F81080F7E700BF58100020D7
:100EE80000100440E210002010B10222094B9A625F
:100EF80071B101220020074B07499A624A630749EA
:100F08001967074908609A64022203F580531A6139
:100F1800002070470000044000200440E412002034
:100F28005810002030B51A4B87B001AA03F11005FC
:100F3800144618685968083303C4AB422246F7D1EF
:100F48001B782370134B1B6F03F00703032B1BD075
:100F5800114A9368C3F30443102B17D818336B4412
:100F68000E4913F8143C4B430D498B4203D1926848
:100F7800C2F30162D340074A106FC0F30130013059
:100F8800B3FBF0F007B030BD064BF4E7064BF2E7D1
:100F9800D4290000008000400000014040420F00BA
:100FA80000093D0000F04902C0EA210113B5002103
:100FB80001230422084600F0F7FD00230093009B5C
:100FC800632B18DD002101230222084600F0ECFD06
:100FD80000230193019BB3F5FA7F0FDB0022094B35
:100FE80010465C691146012300F0DEFDE04300F085
:100FF800010002B010BD009B0133DFE7019B013304
:10100800E7E700BF00C0034030B5024600230C25C7
:10101800054905FB03F460180C59944203D00133C9
:101028000C2BF6D1002030BDE8290000F0B50023D4
:10103800082787B0CDE9013315463B46009704AA37
:10104800044601F077F941F203039842064623D19A
:1010580094F8433053B13A46E06C04A901F097FA8A
:1010680004AA3B461146A06C01F076FA059A049B47
:101078006A6094F843202B6052B9094A934207D01A
:10108800084A934204D00822E06C04A901F07FFAD0
:101098006B68236500236365304607B0F0BD00BF69
:1010A800F70A0AF7FC0404FC2DE9F04100254FF08B
:1010B800FF3704468846164603F0200380F842307E
:1010C8001822FF21C0E91855A0F8405080F8435075
:1010D800A0F8445080F84650C0F88870683001F095
:1010E8009AFB88222946C4E91286C4F88070C4F89D
:1010F800847004F1900001F08EFB074BC4F8207156
:10110800C4E9463584F8245116B1304601F035FA61
:101118000020BDE8F08100BF000101012DE9F04F7A
:10112800A5B09946CDE91123002304460E464FF099
:1011380001082E9D1393139978E094F846300C2BF0
:1011480070D8062B4BD908FA03F212F4286F40F036
:101158000B8212F4885F40F0B7810A2B66D1DFF862
:10116800B4A3636D072B00F228814FF0080B3823D6
:1011780016AA2046CDE90188CDF800B011A901F0E2
:10118800D9F841F203030A900A9A9A4200F03F8183
:101198000A9B5BE0A3F10E02052A00F28F82DFE8CA
:1011A80012F001030600F50032023202FF020027A6
:1011B800636D0F2B00F28A80102314AA0093204637
:1011C8004023CDE9018711A901F0B4F841F20303E6
:1011D8000890089A9A4200F0CB80089B36E0013BC1
:1011E800052B27D8DFE813F074006E000600C00155
:1011F800DC0078010127636D072B00F2DE800823ED
:1012080014AA009320464023CDE9017711A901F0E3
:1012180091F841F203030B900B9A9A4200F0218156
:101228000B9B13E0A3F10D02062AB3D9494584D3D9
:10123800002065E014AA204611A9FFF7F7FE41F245
:1012480003020590059B934208D0059B049341F245
:101258000303049A9A423FF46EAF50E0159A14992A
:10126800226500226265A94A914240F00581022266
:1012780084F84620EAE7082314AA0093204640236E
:10128800CDE9018711A901F055F841F20303069051
:10129800069A9A4201D0069BD8E7149B03F07F4335
:1012A800B3F1407F05D0132384F8463041F2090397
:1012B800CCE7159BD90706D594F8423043F00103D3
:1012C80084F842300027636D072BD4D9012300E14D
:1012D800204614AA11A9FFF7A9FE41F203030790BB
:1012E800079F9F420FD0079F41F203030497049A78
:1012F8009A423FF420AF049B0BB10023F37004988B
:1013080025B0BDE8F08F1498FFF77EFE28B91323A7
:1013180041F2080784F84630E6E7437994F8242137
:101328009A4205D9132341F20E0784F84630DBE7C9
:10133800026877498A4205D00289D20748BF01333B
:1013480084F8243194F84230D9070DD5028994F8ED
:101358004330920706D53BB1132341F2010784F8C5
:101368004630C1E7002BF7D0037984F84630BBE755
:10137800D4F848A000F0DAFA80230221CDE900036E
:1013880015AA0123504601F0C2F811E7226D012386
:10139800A265002284F84330E26584F84630CAE644
:1013A80000213C2215A81491012701F034FAD4E950
:1013B8001432934204D884F8467041F2030345E797
:1013C800009314AA40232046CDE9017711A900F023
:1013D800B1FF41F203030990099A9A4201D0099B8F
:1013E80034E70DF1500C06F108030DF1680E624662
:1013F80003CA724518605960944603F10803F6D190
:1014080010681860337843F001033370CFE73378FE
:1014180043F004033370179BB36273785F071CD5DE
:101428000020236DCDF850A0C4F8843094F84530DE
:10143800606643F0020384F84530EF686FB1042218
:101448002B6814A9B847606E2B685A46EF6816A92E
:101458000830B847636E103363660B2384F8463050
:101468007FE63378159A43F002033370149B736058
:10147800236D083B73622AB1132384F8463041F286
:101488000103E3E6042384F8463094F845306266A5
:1014980043F0010384F84530ADE6042314AA009311
:1014A80020464023CDE9017711A900F043FF41F21E
:1014B80003030C900C9A9A4201D00C9BC6E6226D4D
:1014C800149B042A01D923660127636D032BE4D9F1
:1014D800092384F8463070E70023636607235CE736
:1014E8009F4251D89F4228BF1F46402314AA204636
:1014F800CDE90188009711A900F01CFF41F2030310
:101508000D900D9A9A4210D00D9B9FE6EB17A603FB
:10151800F90707F9EB17A65E402F28BF40279F421F
:1015280028BF1F4627F00307DFE794F846B0BBF152
:10153800070F2FD0042FC7F1040A88BF4FF0000A05
:1015480014AB5246FF21D81901F065F9BBF1090F18
:10155800BA442DD12B465246204614A900F06BFF01
:101568000D900D9B002BCFD1D4E914739F427FF6C9
:10157800ADAEFF1ADDE912329B1A94F84020032F12
:101588001344ADD9032BC7D8204611A900F0B1FEEA
:1015980000235BE6D5F808A0BAF1000FCAD02B6883
:1015A8003A46606E14A9D047636E3B446366DBE736
:1015B800BBF1040F1DD173789807D5D5EB68002BC4
:1015C800D2D0626E042A0BD80AEB0203062B07D985
:1015D80015AB9B1A1A68C4F884204FF0FF321A60C2
:1015E800EF682B685246606E14A9B847636E53447F
:1015F800DCE7BBF10B0FB7D173785907B4D5EF68A7
:10160800002FEED1B0E700218A6A496B1269503A7F
:1016180091423FF634AF112B0FD194F81831002BBB
:101628007FF454AE41F206030E930E9A9A4202D109
:10163800132384F846300E9B08E694F84430002BB8
:101648007FF444AECDE90133402314AA0093204629
:1016580011A900F06FFE41F203030E900E9A9A4210
:10166800E9D1E06C00F095FF94F81831A3B104F1CA
:10167800B4030093E06C04F194031CAA14A900F0CD
:10168800ABF80E900E9BA3B10023F370132384F8DC
:10169800463041F20603D9E5D4F84CA000F016F91B
:1016A800074600F02BF93B4600901CAA504614A9A7
:1016B800E5E70123F37084F8443007E600234FF090
:1016C8000408CDE9013314AA40232046CDF8008050
:1016D80011A900F02FFE41F203030F900F9A9A42CE
:1016E80002D00F9B04930AE6D4F888202F4B9A4225
:1016F80005D0132384F8463041F20503F2E70123AD
:10170800F37094F84530DA0707D5EF682FB14246F1
:1017180040462B6804F18401B84794F845309B078C
:1017280007D5EF682FB104222B68104604F1840115
:10173800B847236E6BB36F685FB34FF0FF3304F1A4
:1017480080080422414610A8109301F054F828B1EB
:101758000422414648F204002B68B84704F168099E
:101768000422494610A801F046F890B100239B6A6C
:101778001422D3F8108004F16C0108F10800D5E9AF
:101788000037B847D5E900370422494608EB02007C
:10179800B8470123B3700E2384F846300023A1E72D
:1017A8000023F37041F20700AAE500BFE320BBDE87
:1017B80030B501240025074B01445C609D601A6127
:1017C800DC60884201D1586A30BD10F8012B1A62DA
:1017D800F7E700BF008008402DE9F04399B00E46B6
:1017E80015461C460746DDF88090002861D0002980
:1017F8005FD0002A5DD0002B58D02F4B2F4AB9F16B
:10180800000F14BF984690461C22002111A801F031
:1018180002F82B4B414610A8109300F09AFF2021A4
:1018280010A800F096FF0122264B01940292039320
:10183800CDF810900592069354B1B9F1000F07D076
:1018480001A910A800F071FF04A910A800F06DFF0D
:10185800079701271B4C07A910A80897099400F0BF
:1018680064FF0AA910A80A960B970C940D950E9779
:101878000F9400F05AFF0DA910A800F056FF10A809
:1018880000F070FF104B00934FF098435A6CD2024F
:10189800FCD55B6D40F2046003F470230093009B59
:1018A800002B08BF002019B0BDE8F083DFF80C80DA
:1018B800AAE740F20160F6E71F2400801F24FC8499
:1018C80000000106200000207856341200B599B0B7
:1018D80020220021684600F09EFF40230021684630
:1018E80008AA00F067FA20F010000128024818BF83
:1018F800002019B05DF804FB4CE30B0000B599B06B
:1019080020220021684600F086FF40230021684617
:1019180008AA00F04FFA20F010000128024818BF6A
:10192800002019B05DF804FB6CE30B000048704719
:1019380086E20B002DE9F3471446DDE90A920D46CD
:101948001F4600284DD14CB313683F2B2AD8516845
:1019580051B32549002F14BFB846884603F03F0607
:101968001B19136022BF536801335360FEB93F2C23
:101978000ED9A3092A46009341463B46002000F0B1
:1019880083F824F03F031D4404F03F0434B10026DB
:101998002246294609EB060000F020FF002002B08D
:1019A800BDE8F087B846D9E7DFF83C80D6E7C6F14E
:1019B800400A5445ECD32946524609EB060000F08C
:1019C8000DFF0123264400934A463B46414600202A
:1019D800A6F1400400F058F83F2C5544D6D9B84633
:1019E800C7E70248DBE700BFB82A000080AFFFFF67
:1019F8002DE9F0411746146886B01E46E3008DF8BD
:101A08000F3063098DF80E30630B8DF80D30630DC0
:101A18008DF80C3053680546DA0002EB54728DF8E5
:101A28000B2004F03F045A09372C8DF80A204FEA9E
:101A380053324FEA53538DF80920884694BFC4F1B6
:101A48003802C4F17802CDE900178DF808300D4945
:101A580003460020FFF76EFF08222B460020CDE941
:101A680000870DEB0201FFF765FF284605F120030B
:101A780050F8042B984246F8042BF9D1002006B000
:101A8800BDE8F081782A0000F0B593B00E461746FD
:101A98000446202200210AA81D4600F0BCFE0120B1
:101AA8004FF0005201970290039204960590069217
:101AB800079508900992002C2FD1189C184BA40167
:101AC80021460AA80A9300F044FE039B04A91C437C
:101AD8000394069B0AA843F020030693099B43F04E
:101AE8002003099300F021FE01A90AA800F01DFEB9
:101AF80007A90AA800F023FE0AA800F033FE4FF059
:101B080098435A6CD202FCD55B6D13F4702F14BF46
:101B18006FF06F00002013B0F0BD6FF07100FAE7AE
:101B280000040103064B0748DA1C121AC11E22F0F2
:101B38000302994288BF0022034900F04FBE00BF4C
:101B480044130020E4120020E42A0000064B074852
:101B5800DA1C121AC11E22F00302994288BF002221
:101B6800002100F058BE00BFE41200201010002031
:101B78000348044A0449121A921000F032BD00BF0B
:101B88003401000034010000E4120020044B054A2F
:101B98009A60D3F8882042F47002C3F8882070470E
:101BA80000ED00E000000000F8B504460D461F46B1
:101BB80016464AB101238B403021184A01FB002206
:101BC800F7B141F21001535004EB4403072D4FF0D5
:101BD8000F014FEA031316D8A80006FA00F2814055
:101BE8000F48184400F009FD4EB9012330210B4A73
:101BF800AB4001FB042277B141F210015350F8BD0C
:101C080042F21001DFE7A5F10800800006FA00F2B1
:101C180081400448E5E742F21001EFE700C00340C5
:101C280004C003400CC00340F0B5114A114C124ED9
:101C380000F00105E3695F0713D40DB9334213D1EE
:101C480003EA00078F4207D10B4A1A40002A0CBF4B
:101C580000206FF00100F0BD013AEBD16FF00200F7
:101C6800F9E74FF0FF30F6E76FF00100F3E700BF48
:101C780080969800000003400200010038B541F644
:101C8800713301220C4C0021E569E3630B4B05F429
:101C98008035DA600223606121202361FFF7C4FFE9
:101CA80010B92120FFF7C0FF0122054BDA600DB102
:101CB8000023E36338BD00BF000003400010034069
:101CC800002003402DE9F04F01274FF4502530261E
:101CD8002A4CDFF8B4C0DFF8B4E0CCF8047044F85C
:101CE8002050002441F6713506FB00E6F4653466A1
:101CF8003467234CDFF89890D4F81C80E563E568D6
:101D0800DFF890A03D43E56007FA00F04BB9E268C0
:101D180018F4803F22F00102E26029D10020BDE8DA
:101D2800F08F01F5005505EA09056D1A9D4228BF97
:101D38001D466161D4F81CB0AF081BF0040F19D11F
:101D4800013F3F0147F060577766B266C6F86CA05E
:101D5800CCF82400DEF834703842FBD0094F29440F
:101D680078630427CCF828002A4427615B1BCDE759
:101D7800E363D3E74FF0FF30D1E700BF00400440F2
:101D8800000003400020044000100440000004400C
:101D980000E0FFFF18000340054B5B69C3F38512A1
:101DA800827003F03F021B0B42700370704700BF44
:101DB80000C007401FB5044608B302B3402B1ED12C
:101DC80093071CD1C1B1012919D14FF400710D4BF2
:101DD80001920B4323600023C4E90133E36101232B
:101DE8000293094B204601A9039300F0A8FC204662
:101DF80000F088FC04B010BD4FF48071E7E72120A3
:101E0800F8E700BF010008FF400000202DE9F0417D
:101E1800012905460E4690461F4692B04AD80468E6
:101E280024F04003802B02D0B4F5807F45D11C22DA
:101E380000210BA800F0EFFC234A244B0121012EBE
:101E480008BF13460A932B1D0193E408204B44F066
:101E5800005402910AA80394CDF8108005910693C6
:101E68000797089101A9099300F05FFC04A90AA843
:101E780000F05BFC07A90AA800F061FC29680AA821
:101E8800C90800F066FC10210AA800F062FC00F006
:101E980035FCA8B90AA800F065FC4FF098435A6CC5
:101EA800D202FCD55C6D00F02BFC04F4702012B05B
:101EB800BDE8F0816FF02000F9E76FF07100F6E7F8
:101EC8004FF0FF30F3E700BF0001000400010104F8
:101ED800100000202DE9F04F07468946984616461F
:101EE80099B082B115683B6823F04002802A03D07C
:101EF800B3F5807F40F0A68000244C4505D306B199
:101F0800356000207BE01546EDE75DB1239B229A02
:101F18001B5D525D01355340249A05F00F0513559A
:101F28000134EAE7A9EB040ABAF10F0F0BD8239B97
:101F380003EB040A249B1C44239B03EB090BDA459F
:101F480060D14C46D9E71C22294611A800F063FC51
:101F58003E4B3A6810933B1D01930123D20842F08F
:101F68000052029303923A4ACDF8108005930692E4
:101F7800CDF81C8008930992239A249922442AF0C8
:101F88000F0A0A9221444AF000520B9310A80C92AF
:101F98000D9101A90E930F9200F0C7FB04A910A898
:101FA80000F0C3FB0AA910A800F0BFFB0DA910A8F8
:101FB80000F0C5FB07A910A800F0C1FB396810A8FC
:101FC800C90800F0C6FB514610A800F0C2FB00F09B
:101FD80095FB90B910A800F0C5FB4FF098435A6CD8
:101FE800D202FCD5586D544400F4702B00F088FBE5
:101FF800BBF1000F9BD0584601E04FF0FF3019B0FD
:10200800BDE8F08F55B1229A1AF8013B525D0135AF
:10201800534004F8013B05F00F0590E742460121C3
:102028003846229BFFF7F2FE0028E8D108F110029B
:1020380012F8013D0133DBB21370002BE3D1904558
:10204800F6D1E0E76FF01F00D9E700BF03030004F3
:102058001000002000F012B8FEF742B9704710B522
:102068000446FEF7B7FE182C07D12046FEF7B2FE4D
:102078002046BDE81040FEF7ADBE10BDFEF7C8BD56
:102088004FF098435A6CD202FCD5586D00F470207A
:102098007047C0F30C032DE9F04105460F4616467C
:1020A8000BB900F0FEF805F5005424F4FF5424F0B1
:1020B8001F0405EB0608A04507D8324639462846CE
:1020C800BDE8F041022300F0F3B8204600F0E9F83B
:1020D80004F50054EFE770B40025AD6A03462E6995
:1020E800864206D86C6913449C4202D370BCFFF741
:1020F800D0BF70BC704737B500F5004310F5004FEE
:102108000D461446019319D2019BB3F53E2F15D203
:10211800019BC3F53E23934210D338B9836A5A69A9
:10212800B2F5004F02D9186900F0BBF822462946DB
:10213800019803B0BDE83040FFF7ABBF03B030BD36
:10214800036913F0FE0F0CBF01200020704738B55B
:1021580004460D46FEF7B0FA38B16369012B07D182
:102168002046FFF7EDFF10B1A46901202C6038BDAF
:102178000020FCE700239B6A986870474FF0FF3304
:1021880013B5044601A80193FEF7AAFB20B1019BF1
:10219800A3422CBF0020012002B010BD4FF4004024
:1021A80070470020704700207047034618460168B2
:1021B80081F3088881F3098840688746FEE74FF471
:1021C8000170FEF799BCB1F50D7F10B504460FD329
:1021D8004FF40D72002100F01EFB04F5DE7204F5C9
:1021E800AA7104F12C000023BDE81040FEF75CBF83
:1021F80040F2052010BD13B50446009101462C306D
:10220800FEF78CFFC4F8300218B141F20703984278
:1022180004D1A37823B1E07800F2022002B010BD07
:1022280040F20120FAE72DE9F04387B00DF10809E3
:1022380004460E4617460021102248461D46DDF882
:10224800388000F0E8FA00211C22C8F8001028465F
:1022580000F0E1FA32463B462146CDF8009004F101
:102268002C00FEF75BFF23789A0744BF6268C8F822
:102278000020DB0709D504F1080304F1240253F810
:10228800041B934245F8041BF9D1237840F2064019
:10229800002B18BF002007B0BDE8F0834FF40D7085
:1022A800704708B5FFF7EAFCB0FA80F0400908BDAE
:1022B800072B10B5044618460FD862B142EA04034A
:1022C8009B070AD113460A462146FFF7FBFCB0FAE2
:1022D80080F0400910BD0120FCE70020FAE7012347
:1022E80007B5002200911946FEF7ACFD03B05DF872
:1022F80004FB70B5D1E90152AA4205D290F84030EA
:102308002B449B1A402B10D9002012E00A6890F841
:102318004040D65C90F841200133224402F03F024D
:10232800013486548B6080F840408B689D42EDD81C
:10233800012070BD2DE9F84390F840C017469E462D
:10234800D1E90123089DD21A6244954204460E46FB
:102358009DF824909DF828800AD9FFF7CAFF002825
:1023680067D1132341F2020084F84630BDE8F883B0
:10237800754555D8002394F840200AB19D4235D1BF
:10238800D6E90121914201D29D4241D89D424DD1C9
:1023980029463846D4F88820FFF70AFAC4F8880096
:1023A800B9F1000F04D02A463946E06C00F0EFF886
:1023B80094F84330B8F1000F06D08BB12B463A465B
:1023C8003946A06C00F0C8F894F8433043B1E36D87
:1023D800A26D2B449342E36524BF002384F8433065
:1023E800636D41F203002B446365BFE794F8412015
:1023F800A25CFA5494F841200133013202F03F0202
:1024080084F8412094F84020013A84F84020B2E74B
:102418003268525CFA54B26801330132B260AFE7F5
:1024280041F20100132384F846309FE741F202008D
:10243800F8E700209AE72DE9F04799465B680446DB
:102448000F469046002B40D011F0030340D19B6A01
:10245800006E1B6981181D1DA9421BD31C339842AD
:1024680018D2A842024638BF2A46994294BFC2EB06
:10247800010AC2EB030A101A3E18C5F1680010449D
:1024880031465246204400F0A9F95246FF21304611
:1024980000F0C1F948F20403226E9A420CD848F2BF
:1024A800070102EB0800884206D99B1AFA58C4F8BB
:1024B80080204FF0FF32FA50D9E9003542463946BC
:1024C800206EA847236E434423660020BDE8F087AA
:1024D80041F20200FAE749BA89B24840C0F3031250
:1024E800424013B283EA0233580100F4FF509BB212
:1024F8005840704738B5044645181046AC4200D1DC
:1025080038BD014614F8010BFFF7E5FFF6E72DE9A2
:10251800F04100F120080446404616461D460F4685
:1025280000F03DF9DDE90612404600F03CF90023D1
:1025380084F8587063643368C4F859307368C4F811
:102548005D30B368C4F861302B0C6DBA84F865301F
:10255800A4F86650BDE8F0811FB50C46194600F195
:102568004803CDE90142009300F1440200F1580309
:102578002030FFF7AFFC04B010BD10B5044600F0E2
:102588000BF82046BDE81040002100F009B800F023
:102598000CB8014600F016B86822002100F03BB9DB
:1025A80003460020C3E90000704707B500F128037F
:1025B8000190009300F108030020FFF7BBF903B076
:1025C8005DF804FB02460B4600F128010830FFF7CE
:1025D8000FBAEFF3108072B6704700B962B6704751
:1025E800FEE74AB1002310B550F8234041F82340D4
:1025F80001339342F8D110BD704770B505461446B3
:102608000E46FFF7E6FF2B685C4034405C402C60C8
:10261800BDE87040FFF7E1BF036BDA0702D5036935
:102628005B06F9D4704710B5FFF7F6FF01220446A0
:1026380000F500531A630B7948881B0243EA80436C
:10264800887A0343487843EA8013C87A43EAC01378
:10265800087B43EA4013487B43EA0013887B43EA3C
:10266800C003C87B43EAC023887943EA0043C8799A
:1026780043EA4043636004F580531A630A780AB951
:102688000223E360002363624B79087A1B01497ACD
:1026980043EA80030B43A3600AB10123E36010BD42
:1026A800B0F5802F22D010D8B0F5003F20D007D841
:1026B80018B3B0F5803F08BF482018BF0120704705
:1026C800B0F5403F08BF2C20F7E7B0F5302F11D008
:1026D80007D8B0F5E02F0FD0B0F5202F08BF102095
:1026E800EBE7B0F57F0F08BF0620E6E74B20704701
:1026F8002A2070471120704721207047002070471A
:102708000020704708B570B100F02CF84FF09843DE
:102718005A6CD202FCD5586D10F4702004D0BDE874
:102728000840FFF7BDBF212008BD436813B94160C9
:1027380070475B685A68012AFBD159607047836803
:1027480013B9816070475B685A68012AFBD15960E8
:102758007047C369032B9FBF00EB83020133D1602D
:10276800C3617047C369042B14D84FF09842116CA9
:10277800C902FCD504339B0013650168103B116046
:102788004168116050F8081F11604FF098420344E7
:10279800984200D1704750F8041F1160F8E72422CE
:1027A800002100F038B870B515460E4624220021E5
:1027B800044600F030F825F04003802B02D0B5F530
:1027C800807F08D12046314640F8045BEA0800F0D3
:1027D80005F8002070BD6FF01F00FBE70A44431E98
:1027E800914200D1704710B511F8014B914203F89E
:1027F800014FF9D110BD0139024410B5904201D101
:10280800002005E0037811F8014FA34201D0181BFE
:1028180010BD0130F2E702440346934200D17047ED
:1028280003F8011BF9E700000000000000000000A9
:102838000000000000000000F8B500BFF8BC08BCAC
:102848009E467047F8B500BFF8BC08BC9E46704766
:1028580000000000DF20000000000000FF20000052
:102868000D0A4765636B6F20426F6F746C6F61640C
:1028780065722076582E59592E5A5A0D0A312E2033
:1028880075706C6F61642067626C0D0A322E20725D
:10289800756E0D0A332E2065626C20696E666F0DA9
:1028A8000A424C203E20000D0A4661696C6564208E
:1028B800746F20626F6F740D0A000D0A66696C658B
:1028C800206572726F72203078000D0A626C6F6337
:1028D8006B206572726F72203078000D0A53657232
:1028E80069616C2075706C6F61642061626F7274CD
:1028F80065640D0A000D0A53657269616C20757074
:102908006C6F616420636F6D706C6574650D0A008F
:102918000D0A626567696E2075706C6F61640D0AD7
:1029280000B814B6F1E0CFF3ADB7DD25C9FA79B731
:102938001300000013B779FAC925DDB7ADF3CFE06E
:10294800F1B614B80102000000000000442B00009A
:102958004000000003000502000000000000000025
:10296800000000000000000000000000000000005F
:10297800000000000000000000000000000000004F
:102988000000000007B0CD5E020000000300050251
:10299800482B00000040000000000C00F00410006C
:1029A800AB210000AF21000009070000CF21000083
:1029B800FF210000000000002F220000A5220000D7
:1029C800000000002D090000A521000004000007F8
:1029D80000000D1013001A20263038405000000067
:1029E800EB17A6030201000003000000FA0606FA2E
:1029F8000F04000003000000F40A0AF405050000B3
:102A080001000000EB17A65E0A06000001000000A6
:102A1800F50909F50307000001000000F60808F6AB
:102A28000608000000000000FE0101FE0808000082
:102A380000000000FD0303FD0C080000000000007A
:102A4800F90707F91009000002000000F30B0BF367
:102A5800110A000003000000F70A0AF7120B000031
:102A680003000000FC0404FC0D0C0000030000003F
:102A780080000000000000000000000000000000CE
:102A8800000000000000000000000000000000003E
:102A9800000000000000000000000000000000002E
:102AA800000000000000000000000000000000001E
:102AB8006A09E667BB67AE853C6EF372A54FF53AC7
:102AC800510E527F9B05688C1F83D9AB5BE0CD19F3
:0C2AD800E42A0000E412002018000000B6
:102AE400F00F100300000000E210002013000000AB
:102AF40009000000000100000202000013000000B1
:102B0400F00F100300000000E21100201300000089
:102B1400090000000002000001010000D3FFFFFFD4
:102B2400F07F103062100020000000000000000060
:102B34000080054021000000E5010000BD01000007
:0400000300000139BF
:00000001FF
