:10400000001000200D4A0000F56F0000F96F00005D
:104010008B500100FD6F0000057000001148010089
:104020001148010011480100114801001148010028
:104030000970000028AE010011480100114801007C
:1040400011480100114801001148010051490000C8
:1040500011480100114801001148010011480100F8
:104060001148010011480100497F00008D980000AF
:1040700011480100114801001148010011480100D8
:1040800011480100114801001148010011480100C8
:10409000114801005D4F0000114801001148010066
:1040A000114801004D5000002D5000001148010042
:1040B0001148010011480100114801002D4601007E
:1040C0002DAD010029AD0100A53D010039AD010074
:1040D00031AD0100F145010035AD0100652401005D
:1040E0006D4601001148010011480100114801000E
:1040F0001148010011480100114801001148010058
:104100001148010011480100114801001148010047
:104110001148010011480100114801001148010037
:104120001148010011480100114801001148010027
:044130001148010031
:10413400F0B5114A114C124E00F00105E3695F0716
:1041440013D40DB9334213D103EA00078F4207D1C8
:104154000B4A1A40002A0CBF00206FF00100F0BD8A
:10416400013AEBD16FF00200F9E74FF0FF30F6E7C8
:104174006FF00100F3E700BF809698000000035041
:10418400020001000B4B70B5D96911F480310DD1D7
:1041940001244FF48072084E084DF46020462C64CC
:1041A4001A61FFF7C5FF3464EC6070BD6FF0010065
:1041B400FBE700BF00000350001003500020035031
:1041C40038B541F6713301220C4C0021E569E363F3
:1041D4000B4B05F48035DA600223606121202361F2
:1041E400FFF7A6FF10B92120FFF7A2FF0122054B1C
:1041F400DA600DB10023E36338BD00BF0000035053
:10420400001003500020035070B5134C6061E36943
:104214005B071ED40E4656F8043B8D18A361AE42CC
:104224000BD10423002121202361FFF781FF58B91A
:10423400BDE870402120FFF77BBF08210846FFF747
:1042440077FF10B10423236170BD56F8043BA361CA
:10425400E5E74FF0FF30F7E7000003502DE9F8439E
:10426400154641F67132164B8946DF69DA6301223D
:10427400064603F58053DFF8508007F48037DA6090
:1042840055B9284601220F4BDA601FB10022A3F56D
:104294000053DA63BDE8F88306F5005404EA080421
:1042A400A41BAC4228BF2C46494622463046FFF7A1
:1042B400ABFF0028E6D12644A1442D1BE0E700BF54
:1042C400000003500020035000E0FFFF0000000046
:1042D8002DE9F84F40220021294815F06FF83022C7
:1042E8000021284815F06AF800209FED237B264B13
:1042F800264E274ADFF888B0DFF8ACA0DFF8AC908C
:10430800DFF8AC80DFF8ACE01E4FA3F1180C2425D1
:10431800002145430BEB401443E9054A0CEB050427
:1043280043E9039843F8181C43F804EC2177216209
:10433800182404FB007442F8144C164C42F8181C5C
:1043480042F8104C144CA6EC027B42F80C4C134C6F
:1043580043F8241B42F8084C114C42F8044C114C09
:104368002C442177216242F8241B08B1BDE8F88F5C
:104378000120CCE7AFF3008000000000000000003F
:10438800DC330020AC3300207C330020E810002010
:1043980034330020957F00004F5101006D5101001A
:1043A800A35101001C330020BD7F0000895101008A
:1043B80071510100F5510100F7B5012003F08EFF9E
:1043C8000446002840F0A980574E584B584DC6E97E
:1043D800003041F60B23B0602860AB8005F082F80E
:1043E8002146304609F02AFC044600B9FEE7514947
:1043F80009F068FF00B1FEE70221204615F06CFFC6
:1044080000B1FEE720464C490AF06CF900B1FEE71E
:104418000121204616F01AF900B1FEE701212046D5
:1044280016F022F9074600B1FEE701463C22434850
:1044380014F0C4FF80233A46204606F1100116F016
:1044480023F8802800D0FEE73D4E012009F04CFCFF
:1044580033A3D3E9002334602046CDE900234FF08D
:10446800FF324FF0FF3315F083FF00B1FEE706215E
:10447800284603F077FF0121084603F05FFF01217A
:10448800306815F0C1FE00B1FEE700222D4B2E4921
:104498009A801A602D4B6FF063001960FF219A8093
:1044A8002B4B9A802B4A83F820101A602A4ADA602C
:1044B80005F0D6FE2B790B2B11D86B790A2B0ED968
:1044C800264B1D6002F0C6FA062004F0FDFF082204
:1044D8003068114615F051FF044608B1FEE7FEE7C3
:1044E80004F0EAFF1E4B10211E481C7011F058F909
:1044F80000B9FEE71C491B4811F064F900B9FEE752
:1045080010218C20194A10F05BFD00B1FEE7184815
:1045180003B0BDE8F04011F04DBB03B0F0BD00BFE3
:104528000AE020FF220200007834002035860000CF
:10453800703400200700110038B101002834002031
:104548006834002058110020CE3D00203011002092
:10455800081100204E3D0020F81000206C34002087
:10456800503E00201C350020B15601000C350020BB
:104578002BB101000348044B834202D0034B03B123
:104588001847704790430020904300200000000027
:10459800064B0749C91A891048BF0131491003D091
:1045A800044B0BB101481847704700BF90430020E7
:1045B800904300200000000010B5064C237843B952
:1045C800FFF7D8FF044B13B10448AFF30080012371
:1045D800237010BD283D00200000000060EC0100A1
:1045E80008B5054B1BB105490548AFF30080BDE888
:1045F8000840FFF7CDBF00BF0000000010280020D2
:1046080060EC0100A3F5803A704700BF174B002B00
:1046180008BF134B9D46FFF7F5FF00218B460F4659
:104628001348144A121A14F0C9FE0E4B002B00D07E
:1046380098470D4B002B00D098470020002104001C
:104648000D000D48002802D00C48AFF3008007F099
:10465800BFFA2000290014F0D4FD07F0A7FA00BF24
:10466800000008000000000000000000001000200A
:1046780098100020A03F002000000000000000006B
:1046880000239B6AB3F5804F03D21968064A91420A
:1046980003D00023037083607047012202709A6878
:1046A8009B694260F7E700BF07B0CD5E4FF000534B
:1046B800014A1A6002F022BC02020FF073B5494B9E
:1046C80004461A781AB102221A7002B070BDCDE9F8
:1046D80000220028F9D001261E7010F079F8424D0A
:1046E800424B18600CF0F8FD2B785BB900F0BAFC6F
:1046F80040B93F4808233F4A3F49006809F09CF801
:1047080000B92E703D4B5A68E2603D4A9A601A6EB5
:1047180022605A6E6260D3F87021A2601B6E5C043E
:1047280040D5384AD368D807FCD4374B1A68531C8D
:104738003DD04FF480139340344A13660423334C1E
:1047480023664FF48063236610F00EF801300ED014
:1047580010F00AF840F20113984208D04FF4804351
:1047680023664FF4004323661023C4F870311023E6
:10477800264C4FF0804223664FF400536846236668
:1047880001A9226663660FF0D7FF009B2366019B91
:1047980063662B78002B98D0164B1A6822665B68E4
:1047A800636692E71A4AD368D907FCD4BDE7194B68
:1047B8001B78002BC2D1184B5A68144B12B94FF40E
:1047C80080121A66154A526812B94FF400121A6616
:1047D800134B5B68002BB1D14FF480020B4B1A6668
:1047E800ACE700BF2A3D00202B3D002038280020E0
:1047F800744100203C28002000710800008000441B
:1048080055CEAC0000000440404100200090004418
:1048180000000450293D00200080055000C00550CC
:104828000000065038B5224D04462B78012B02D0E3
:1048380001232B7038BD0028FCD00FF095FF013004
:1048480009D00FF091FF40F20113984203D0194AA2
:10485800D368DB07FCD42268174B1A6662685A666D
:10486800A268C3F87021E268D40744BF00229A60A6
:10487800124B1A68013213D1114A127882B91149C0
:104888004968C80748BF1A600F4A5268D10744BF31
:1048980001221A600D4A5268D20744BF02221A60E8
:1048A8000CF022FD0A4B18680FF098FF0023C0E7B0
:1048B8002A3D0020000004400080004440410020C0
:1048C800293D00200080055000C00550000006501A
:1048D8003828002000239B6A70B5B3F5804F26D294
:1048E8001A68144B9A4222D1134D2B7813F0FD0409
:1048F80002D00024204670BD4FF480360F48FFF7E1
:10490800DDFE032002F050FB0D4B0320DE6002F0B9
:1049180007FB0C4B1E61A36ADB69984704460748EE
:10492800FFF780FF002CE5D101232B70E1E74FF45E
:104938008174DFE707B0CD5E293D002028280020DC
:1049480000A000440090004413B5214B1B7803B924
:10495800FEE700231F4CCDE900336A4608231E49B1
:10496800206808F069FF00BB1C4AD2F84031D2F831
:1049780040211F2B4FF0010312D9203A9340019A8E
:104988001A43019208236A461349206808F00AFF6F
:104998004FF00053124A1A6002F0B0FA02B010BD8C
:1049A8009340009A1A430092ECE70E4B9842EFD1DD
:1049B8000A4AD2F84031D2F840211F2B4FF00103A8
:1049C80085BF203A93409340019398BF0093D9E75D
:1049D8002A3D002074410020007108000080004436
:1049E8000B020FF00BE000F00348044A0449121AC6
:1049F80092100FF00ABF00BF34410000D4420000FB
:104A0800A03F002008B500F02FF8FFF7EDFF124B8C
:104A180012498B4212D30020114B12498B4218D3F2
:104A2800FFF7F4FD186850F82240586840F8224013
:104A3800013298688242F5D30C33EAE70022F8E79E
:104A48001C6844F8220001325C68A242F8D308339B
:104A5800E4E70022F8E700BF68EC010074EC01000D
:104A680074EC010074EC0100124B134A70B59A60A3
:104A7800D3F88820114D42F47002C3F888206FF0F3
:104A8800010205F50054226641F2FF7262660222B5
:104A9800C3F8D020BFF34F8FBFF36F8F4FF440366A
:104AA800032002F081FA0320E66002F039FA2E6151
:104AB80070BD00BF00ED00E0004000000080004431
:104AC800014B1868704700BF48410020014B18602F
:104AD800704700BF48410020084B1B6F03F00703D5
:104AE800022B04D0032B05D0012B05D0FEE7044B85
:104AF80018687047034BFBE7034870470080005075
:104B08004841002050410020002D310108B5FFF731
:104B1800E3FF054B1B6FC3F301330133B0FBF3F025
:104B2800024B186008BD00BF0080005044410020BF
:104B38000048704700B4C404014B1868704700BFB0
:104B480050410020054B1860054B1B6F03F007030D
:104B5800032B01D1FFF7DABF704700BF5041002097
:104B68000080005000487047002D3101174B9868AD
:104B7800C0F304400C280AD8DFE800F00B09090943
:104B88000909072119091B1D1F001148704700203A
:104B980070479B6803F04073B3F1807F11D0B3F185
:104BA800007F10D00B4A002B08BF104670470A48F8
:104BB80070470A4870470A4870470A4870470A48C9
:104BC80070470A4870470A48704700BF0040015ABA
:104BD800405DC60000093D00C0EA210180BA8C0191
:104BE8000048E801005A62020024F40080841E0094
:104BF80040420F00014B1868704700BF4C4100202D
:104C08002DE9F04F9A46564B85B01B7806460F465D
:104C18001546DDF83C909DF844B0DDF85080002B37
:104C280000F09780072A00F296800E9B002B00F078
:104C38009280B9F1000F00F08E80129BB3F5006FDF
:104C480000F38980012803D1109B002B00F083809A
:104C5800444B03EB05131B7B002B7ED0424C1022E8
:104C68000021684614F0AAFB04EB45141022A7BBE8
:104C78003946204614F0A2FB43F210036380BBF1CF
:104C8800000F03D1E37843F00303E370364A0E9B29
:104C980002EB451CCCE90193129B6901581E9DF853
:104CA8004C30C0F30A0003F003039B0643EA001EDE
:104CB80053582E48012E00EA03004EEA0003CDF8AF
:104CC80000A0535017D0B8F1000F2ED19CF8023035
:104CD80068F304138CF8023027E00021204614F012
:104CE8006DFB4FF444736380BBF1000FCED1E378C2
:104CF80043F03003C9E713230CF1100ECCF80C3045
:104D08009CE80F008EE80F006FF00301DCF81C2010
:104D1800109B61F39F02012FCCF81C20CCF81430B3
:104D280003D1CCF81890CCF8043000270D4A29019B
:104D380002EB051342F80180159A28465A60694625
:104D480022469F605E7301F02FFB384605B0BDE830
:104D5800F08F0748FAE70748F8E70748F6E700BF83
:104D68002C3D002044290020442800200F80FFF318
:104D7800028000F0018000F0078000F038B5124B87
:104D880005461B78DBB1E0B10FF022FD0F4A002386
:104D98001146147B54B92B6001251A0101EB03134A
:104DA8001D738C500FF01AFD204638BD0133082BB7
:104DB80002F11002EDD10FF011FD0548F5E70548A5
:104DC800F3E70548F1E700BF2C3D00204429002007
:104DD800048000F0028000F0018000F0154B13B54C
:104DE8001868002301908DF804300FF0F1FC124B85
:104DF8001C7824B10FF0F2FC104802B010BD01225B
:104E08001A700FF0EBFC0E4B01A81C731C7783F88B
:104E18002C4083F83C4083F84C4083F85C4083F88E
:104E28006C4083F87C4008238DF8073001F094FA31
:104E38002046E2E778AE01002C3D0020038000F018
:104E4800442900200A4A08B512785AB107280BD815
:104E5800084A02EB00131B7B43B1002101F06EFAF4
:104E6800002008BD0448FCE70448FAE70448F8E7CE
:104E78002C3D002044290020028000F0018000F031
:104E8800078000F00A4A08B512785AB107280BD8EB
:104E9800084A02EB00131B7B43B1012101F04EFAD3
:104EA800002008BD0448FCE70448FAE70448F8E78E
:104EB8002C3D002044290020028000F0018000F0F1
:104EC800078000F00C4B1B787BB107280FD871B115
:104ED8000A4B03EB00131B7B5BB1094BDB6AC34036
:104EE80003F0010300200B7070470648704706481E
:104EF80070470648704700BF2C3D00204429002019
:104F080000000450028000F0018000F0078000F0EB
:104F18000B4A10B512780C4662B107280CD859B163
:104F2800084A02EB00131B7B43B101F089FA2060A9
:104F3800002010BD0448FCE70448FAE70448F8E7F5
:104F48002C3D002044290020028000F0018000F060
:104F5800078000F0184B2DE9F0411F6D5B6D1F4075
:104F680000D5FEE701260025144CDFF858803742AB
:104F780018D02368C8F85060A3B1A1682846013149
:104F88006268A1609847637B012B0BD150B90C4B29
:104F980003EB45131A7B60F341021A731A7F60F31F
:104FA80041021A770135082D4FEA460604F110042C
:104FB800DDD1BDE8F08100BF000004504429002085
:104FC800442800200020045070B5044601250B4EEB
:104FD80004B970BD94FAA4F0B0FA80F005FA00F3B1
:104FE80006EB001224EA03045368002BF0D0117B6F
:104FF80011B191689847EBE79847E9E7C429002081
:1050080038B505460C460FF0E3FB0022044B03EBD2
:1050180005135C601A73BDE838400FF0DFBB00BFB2
:10502800C4290020064BD3F82404D3F8202403F520
:105038000053104000F05530C3F82004FFF7C4BFF8
:1050480000C00350064BD3F82404D3F8202403F5FA
:105058000053104000F0AA30C3F82004FFF7B4BF93
:1050680000C00350024B1968024B186808F0C0BA18
:10507800544100207441002070B594002246054632
:105088000E4615F0C9FE431C0AD058B922463146CF
:10509800284614F069F90028034808BF002070BDAD
:1050A8000248FCE70248FAE710E000F021E000F0CF
:1050B80024E000F010B5044615F0AAFE431C10D0F9
:1050C80088B901F0C3FA234620F00300204498422F
:1050D80001D1002010BD53F8042B0132F7D003484A
:1050E800F8E70348F6E70348F4E700BF0EE000F0EE
:1050F80021E000F024E000F008B50FF05EFB014B62
:10510800186008BDB4320020014B18680FF059BB75
:10511800B432002038B141B1013AB2F5006F044809
:1051280038BF00207047034870470148704700BFE8
:10513800037000F0027000F038B504460D460FF019
:1051480047FBA3889BB223B92B600FF047FB0648A7
:1051580038BD142263889BB202FB034408342C60D8
:105168000FF03CFB0020F3E70B7000F0002313B5B1
:105178001D4A52F8044B94F8211081420ED0013395
:10518800042BF6D102B010BD0028FBD19DF80730E2
:10519800002BF7D0A068FFF755FEF3E794F83530F9
:1051A800022BEFD120460FF0E7FB637E2076022B1F
:1051B800E8D194F8323003F0FF02002BE2D1A06866
:1051C8000DF107018DF80720FFF77CFE237E1BB148
:1051D80094F83330002BD7D00023A06884F83330FC
:1051E800FFF750FECEE700BFB832002030B50124EB
:1051F80090F8365087B080F8304095B9826B0368D4
:1052080022448263094A0490CDE902524A68243351
:10521800CDE900420A684169C0680FF024FB07B075
:1052280030BD002380F83030F9E700BF8157000017
:1052380030B5012490F8365087B080F8314095B9E0
:10524800836B026823448363094B0490CDE90253BE
:105258004B683C32CDE900430B68016980680FF068
:10526800E8FA07B030BD002380F83130F9E700BF15
:1052780001530000F8B5044616460F460FF0A8FA89
:10528800A388E2889BB29A42054605D8002333607A
:105298000FF0A4FA1748F8BD1422238807F1100C60
:1052A8009BB202FB03433A460833174603CF6745D0
:1052B800186059603A4603F10803F6D11422386899
:1052C8001860238828469BB202FB034308333360E7
:1052D8002388E2889BB20133B3FBF2F102FB11335E
:1052E8009BB22380A38801339BB2A3800FF076FA88
:1052F8000020D0E70A7000F02DE9F3411446D06A87
:1053080001A9FFF719FFA36BA36B013BA363164B1E
:10531800984222D00027019D2F61AF600FF058FA04
:10532800D5F80C800646B8F1000F04D0D5E9002363
:1053380039462046C047E06A01A90FF034FBE06A0D
:1053480083889BB26BB101A9FFF7F6FE204601994D
:10535800FFF76EFF30460FF041FA012002B0BDE8BA
:10536800F08184F83130F5E70B7000F010B5044691
:1053780080B190F832302BB90FF0FEFA10B9A0685E
:10538800FFF760FD002094F832300133DBB284F877
:10539800323010BD0048FCE7027000F010B504463A
:1053A800A0B190F832309BB190F83230012B05D182
:1053B8000FF0E2FA10B9A068FFF764FD002094F836
:1053C8003230013BDBB284F8323010BD0148FCE7D3
:1053D8000148FAE7027000F0057000F037B590F860
:1053E80035500446022D1DD1012290F82230457E09
:1053F800817F9A403020164B3DB900FB013342F2C1
:1054080010015A50002003B030BD012D04D100FB1B
:10541800013341F21001F4E7247E00FB0133002C34
:10542800F7D1ECE7012DEDD1037E73B911238DF887
:105438000730FFF79BFF2A4620460DF107010FF0C2
:1054480000FB2046FFF7AAFFDCE71323EFE700BFC6
:1054580000C00350F0B50446A14F8BB003AE0D4613
:105468000FCF0FC697E8070086E807001CB99D4CC8
:1054780020460BB0F0BD0DB99B4CF9E76022002126
:10548800204613F09BFF9949994B0A782AB9C3E93A
:105498000022C3E9022201220A7095490022084627
:1054A80050F8046BB4420AD00132042AF8D1002221
:1054B80051F8040B002840F0D98043F822402B7D96
:1054C80084F835302B6823602A7B2271894A9342FD
:1054D80000F0D18002F58042934200F0D18002F5BD
:1054E80080429342C8D14FF4C0238349834A00269F
:1054F8006162C4E90423D5E90723A26216805680B5
:10550800968084F83060E3621E805E809E806B68BF
:1055180084F831600593EB8984F83360ADF81C306A
:105528002B8A7748ADF81A30AB7C8DF81830EB7CB5
:105538008DF81E3005238DF819300FF0A3FC636A2F
:1055480098680FF09FFC286803A98DF80C6001F09B
:1055580005F914212A7B6B4B03EB4217C7F8AC15EE
:10556800287AA97A2E3240EA014C03EB4213C3F899
:1055780004C06A7AEB7A42EA034CC7F8BCC5E07605
:10558800E177227784F820306B7D04226377AB7D46
:1055980084F82130EB7DA3772B7E84F82230012319
:1055A80000F08CFE0123022294F82010207F00F0E6
:1055B80085FE94F83530022B67D13346012294F8E2
:1055C8002110607F00F07AFE3346042294F82210FE
:1055D800A07F00F073FE012394F82120CDE9003369
:1055E8001146607F00F024FE0FF0F2F82B7D06468E
:1055F800032B5BD141F2AC5202212B7B5B0103F1FF
:10560800A04303F57033995004212A6802F58052AB
:10561800D165297EEA7D42EA014241F2B8515A50E9
:10562800A97D6A7D42EA014241F2B4515A504FF0D5
:10563800FF32286800F500539A642B7D032B0CBFBA
:10564800052104210FF0B2FA4FF440622B685A6129
:10565800FFF7C4FB002104F10800FFF78FFB0146A8
:10566800B0B3294C30460FF0B9F801E70132042AEB
:105678007FF41EAFFBE64FF480232449244A36E723
:105688004FF4A0232349244A31E7032BACD13346F6
:1056980094F82110607F012200F010FE33460422A6
:1056A80094F82210A07F00F009FE9DE7022BBED1DE
:1056B80094F821001949FFF7A3FC0FF0EEF84FF416
:1056C8000073238300232046A376FFF787FEAEE707
:1056D80004F10C00FFF752FB04460028C2D0C0E7D3
:1056E800A0AE0100027000F0037000F02D3D002014
:1056F800B832002000800550FCAF0100020006000F
:1057080030B0010000C003500E7000F014B001006A
:105718000200040008B001000200050075510000F5
:10572800F0B587B005461646FFF7F4FC0446E8B91D
:105738000493104BCDE901166A46A86A01A903969D
:105748000593FFF797FD044680B995F830306BB99B
:1057580028460FF000F90099FFF748FD95F8353015
:10576800032B03D028462C76FFF738FE204607B0D7
:10577800F0BD00BF017000F0F7B51446906A01A9AA
:10578800FFF7DAFCA36BA36B013BA3632E4B984294
:105798002FD094F83610019D002938D123689A6CCF
:1057A80012F4007228D0294AA9602A614FF40072C5
:1057B80003F500539A640FF00BF8EF68064637B10B
:1057C8006A68AB682046D31A29692A68B847A06A6C
:1057D80001A90FF0E8F8A06A8588ADB2DDB101A98A
:1057E800FFF7AAFC20460199FFF700FD30460EF0AE
:1057F800F5FF012003B0F0BD996CC90507D5144920
:10580800AA6029614FF4807203F50053D2E70023A0
:105818002B61AB60CFE7012320462376FFF7DEFD3F
:1058280094F8353084F83050032BDFD042F2AC5274
:10583800042123795B0103F1A04303F570339950E8
:10584800022223685A61D1E70B7000F00D7000F056
:105858000C7000F0F0B587B004461646FFF75AFC06
:10586800054638BB0493154B039605932368CDE989
:1058780001169B699B0702D420460FF05BF86A4625
:10588800E06A01A9FFF7F6FC054698B994F83130AB
:1058980083B90EF09DFFE36A06469B889BB233B13D
:1058A80020460099FFF7C4FC012384F834303046C1
:1058B8000EF094FF284607B0F0BD00BF017000F05D
:1058C80041F67133124A30B5D469124DD3639368E7
:1058D800A84204F4803423F4401306D893600E4A97
:1058E800D2F8183223F002030AE043F480139360DD
:1058F8000A4B9842F3D9084AD2F8183243F0020307
:10590800C2F8183214B10022014BDA6330BD00BF6F
:1059180000000350005A620200C0075080F0FA02EB
:105928002E4B98424AD022D82D4B984240D014D8BA
:105938002C4B984239D00AD82B4B984232D02B4B5B
:1059480098422FD02A4B98422CD000207047294BE0
:105958009842FAD1284B186F7047284B98422AD0A2
:10596800274B9842F1D1244BD3F880007047254B40
:1059780098422BD009D8244B984223D0234B9842E5
:10598800E3D11D4BD3F88C007047214B984221D0AE
:1059980003F5740303F510539842D6D1164BD3F888
:1059A80098007047144B986D7047134B586E7047AA
:1059B800114B586F7047104B986F70470E4BD3F8C8
:1059C800840070470C4BD3F8880070470A4BD3F813
:1059D80090007047084BD3F8940070470048E801DE
:1059E8000024F400C0CF6A0080841E0000093D0036
:1059F80040420F00405DC6000080E00FC0EA210170
:105A080080BA8C01007E560380D54302006CDC020C
:105A18000090D00338B5134B0546D3F820010C4647
:105A280000F0070004281AD8DFE800F003090D1178
:105A38001500012305B1286004B1236038BDFFF7C4
:105A48003FF80423F6E7FFF777F80323F2E7FFF7B9
:105A58008DF80523EEE7FFF785F80223EAE7002330
:105A68001846E7E70080005037B50C460021114B77
:105A78000191D3F88031054603F00303022B0ED0C1
:105A8800032B11D0012B03D101A8FFF7C3FF0D2170
:105A98000DB1019B2B6004B1216003B030BDFFF74D
:105AA80065F805210190F3E7FFF75CF80221019002
:105AB800EEE700BF0080005038B5104B0546D3F81C
:105AC80040310C4603F00303022B0BD0032B0DD0FF
:105AD800012B0FD10EF0A7FE082305B1286004B1F1
:105AE800236038BDFFF786F80723F6E70EF09EFE21
:105AF8000923F2E701230020EFE700BF00800050F0
:105B080038B5104B0546D3F860310C4603F0030353
:105B1800022B0BD0032B0DD0012B0FD10EF083FEDF
:105B2800082305B1286004B1236038BDFFF762F887
:105B38000723F6E70EF07AFE0923F2E70123002097
:105B4800EFE700BF0080005038B5144B0546D3F886
:105B580000020C4600F0070004281BD8DFE800F01C
:105B680003090D111500012305B1286004B1236054
:105B780038BD0EF058FE0823F6E7FFF73BF8072379
:105B8800F2E70EF053FE0923EEE7FEF7BFFF0C2302
:105B9800800AE9E700231846E6E700BF00800050C6
:105BA80038B5144B0546D3F808020C4600F0070038
:105BB80004281BD8DFE800F003090D1115000123A4
:105BC80005B1286004B1236038BD0EF02CFE08230F
:105BD800F6E7FFF70FF80723F2E70EF027FE092391
:105BE800EEE7FEF793FF0C23800AE9E70023184647
:105BF800E6E700BF0080005038B5104B0546D3F8E3
:105C080040320C4603F00303022B0BD0032B0DD0BC
:105C1800012B0FD10EF007FE082305B1286004B14F
:105C2800236038BDFEF7E6FF0723F6E70EF0FEFD1A
:105C38000923F2E700231846EFE700BF0080005071
:105C480038B5104B0546D3F800310C4603F0030372
:105C5800022B0BD0032B0DD0012B0FD1FEF76CFFBD
:105C6800032305B1286004B1236038BDFEF7C2FFE5
:105C78000723F6E70EF0D5FD0623F2E701230020FF
:105C8800EFE700BF00800050032814D005D8012892
:105C980005D0022809D0002005E00F28FBD1084BC9
:105CA800186FC0F3013001307047054BD3F89000EE
:105CB800C0F30460F7E7024B186FC0F38020F2E7E7
:105CC800008000501FB500230193252817D8DFE86E
:105CD80000F0131A1D272C363B51565B60656A7815
:105CE800161A401616561A272C27361A5127783BAB
:105CF8003B3B3B2727275B60FEF7EEFE01900198B0
:105D080005B05DF804FBFEF701FFF7E7FEF7E4FED8
:105D180002460220FFF7B8FFB2FBF0F20192EEE76D
:105D2800FEF7F4FE02460320F4E7FEF7EFFE024614
:105D38000320FFF7A9FFB2FBF0F25208EEE70021BB
:105D480001A8FFF791FEDAE7002101A8FFF762FE3C
:105D5800D5E702934FF0E0231B695B0705D5FEF7F3
:105D6800D5FE0290029B0193C9E703A902A8FFF799
:105D7800A3FEF7E7002101A8FFF79EFEBFE7002179
:105D880001A8FFF7BDFEBAE7002101A8FFF7DCFE76
:105D9800B5E7002101A8FFF703FFB0E7002101A83C
:105DA800FFF74EFFABE7094BD3F8803003F003034E
:105DB800022BA8D0032B01D000209FE7FEF7D6FEC8
:105DC8009CE7002101A8FFF717FF98E70080005023
:105DD80008B50120FFF776FFBDE80840034988426F
:105DE80094BF01210221032000F002B880F0FA02DA
:105DF800032810B50C4627D004D8012804D002285F
:105E080017D010BD0F28FCD10EF06AFE0EF070FE00
:105E1800124A013C136F23F4405343EA04331367D7
:105E2800FEF774FE0021FFF74BFDBDE81040FFF7B9
:105E3800CFBF0A4A4C1ED2F8903023F0F85343EAF9
:105E48000463C2F89030DCE7044A4C1E136F23F455
:105E5800806343EA84231367D3E700BF00800050C0
:105E68001FB500230193252821D8DFE800F013206F
:105E78002020202A2F454A4F54595E712020342073
:105E8800204A202020202A204520712F2F2F2F2024
:105E980020204F54314B1B6F03F00703013B032BAA
:105EA80005D8DFE803F00C02080A042301930198DF
:105EB80005B05DF804FB0323F8E70623F6E70223A1
:105EC800F4E7002001A9FFF7CFFDF0E7002001A9C2
:105ED800FFF7A0FDEBE702934FF0E0231B695B0798
:105EE80005D5FEF713FE0B230393039BDEE703A9F7
:105EF80002A8FFF7E1FDF8E7002001A9FFF7DCFDA4
:105F0800D5E7002001A9FFF7FBFDD0E7002001A994
:105F1800FFF71AFECBE7002001A9FFF741FEC6E70D
:105F2800002001A9FFF78CFEC1E70C4BD3F88030A5
:105F380003F00303022B03D0032B05D00023B5E79E
:105F4800FEF7E4FD0B23B1E7FEF710FE0523ADE7EE
:105F5800002001A9FFF750FEA9E700BF008000500C
:105F6800024A536A23F001035362704700C0075086
:105F780038B50546FFF7D4FC204B04465A68012A79
:105F880004D11F494A609A699207FCD10020FFF7A3
:105F980067FF042803D10EF0A3FD0EF0A9FD194AEE
:105FA80024F0407395421FD0174A95421FD0174AD4
:105FB800D16811F0060FFBD19068936091684B404F
:105FC80013F4F81F16D12846FEF780FD0020FFF7CE
:105FD80047FF042810D1FEF799FD0021FFF770FC58
:105FE800BDE83840FFF7F4BE43F00073DFE743F045
:105FF8008073DCE79060E9E738BD00BF00C001505E
:1060080000E0015040420F0080841E000000015053
:10601800F8B504460020FFF723FF032800F081802D
:1060280045F60E0302213F4AC2F880303E4B996282
:10603800012103F580539962936DD903FCD4D4E907
:1060480000131B0543EA0163E17B94F820500B43DE
:10605800217BE77E43EA0143617B6D0143EA01331B
:10606800A17B43EA811313619169D4E904031B06F8
:1060780043EA806301F000410B43A17E94F82300BA
:106088000B43217E43EA0143617E43EA0123936186
:10609800136AE66923F00D0394F8221043EA870394
:1060A80066BB1362966A94F8213045EA031326F01A
:1060B80033052B4343F0010393621C4D194A936D3A
:1060C80035EA0303FBD10225174B9D62936D5B00F4
:1060D800FCD41369A56823F4700343EA05531361DC
:1060E8004FF00042104B9A6119B9022203F5805310
:1060F8009A6278B901220E4B9A620BE0334343F05F
:1061080008031362936A23F0330303432B4343EAE0
:106118004103936294F824301BB1024B054AC3F83B
:106128008020F8BD00C0005000D00050030001409E
:1061380000E00050F1A7FFFF014B93F90000704702
:106148002E3D0020014B1880704700BF644300209B
:10615800284B984242D01AD8A3F5B703A3F5586341
:10616800984237D00CD8244B984225D0234B9842DC
:106178002AD0234B984217D00023224A93607047B5
:10618800214B9842F8D1214BD3F8BC301FE0204B6B
:10619800984227D01F4B984228D01F4B9842EBD1EA
:1061A8001A4BD3F8C83012E0184BD3F8A03023F0BC
:1061B800407343F00073E0E7144BD3F8A03023F0AA
:1061C800407343F08073D8E7104BD3F8A03023F026
:1061D8004073D2E70D4BD3F8B830F8E70B4BD3F840
:1061E800C030F4E7094BD3F8CC30F0E7074BD3F8CD
:1061F800D030ECE7C0EA210180841E0000093D0090
:1062080040420F000040015A0024F4000080E00FD3
:106218000048E801005A620280BA8C01034A0179F9
:10622800D36E23F030030B43D36670470040005011
:10623800072A2DE9F0410D46144698460FD8032643
:106248009700BE4000FA07F2314615480EF068FC88
:1062580005F0030231461348BA400EF061FC124BB8
:1062680012499DF81800B8F1000F18BF194601230C
:1062780003FA04F40C600E4B0E49002818BF0B46B5
:106288001C600D4B9DF81C00C3F82044103103F22C
:106298002443002818BF0B461C60BDE8F08100BFEE
:1062A80000C4035008C4035010D4035010E4035032
:1062B80014E4035014D4035000E00350F8B5044626
:1062C8000D461F4616464AB101238B403021184A15
:1062D80001FB0022F7B141F21001535004EB4403D3
:1062E800072D4FF00F014FEA031316D8A80006FA3E
:1062F80000F281400F4818440EF012FC4EB90123F9
:1063080030210B4AAB4001FB042277B141F2100166
:106318005350F8BD42F21001DFE7A5F108008000F4
:1063280006FA00F281400448E5E742F21001EFE77F
:1063380000C0035004C003500CC00350044A054B6E
:10634800002908BF1346012282401A60704700BF27
:10635800401004504020045010B50446417802789B
:106368000120104B120658609A60A278152042EA64
:1063780001429A61FF229A6200229A631A644FF0DE
:1063880000425A654FF0FF3203F500531A6500F0DA
:106398000BFE1520E17800F015FEBDE81040152031
:1063A80000F0BEBD00000450F8B50125C3B2DFF807
:1063B8008CC0D1F800E09D408F7ACB7A0C46097BDF
:1063C800CCF850500CF5005C4CF820E04FF0300E43
:1063D800184E1B050EFB006094F80DC043EA0743F6
:1063E80043EA415322F00302C0F860C0C365026764
:1063F8000EF0EEF9104B5D65237A13B1336C2B4325
:106408003364637A13B1B36B2B43B3632279A379F3
:1064180043EA0243094A93616179E37943EA014314
:1064280005498B61034B55639D64BDE8F8400EF048
:10643800D5B900BF000004500010045000200450DB
:10644800F8B50125C3B204469D400EF0C1F93022CB
:10645800094B1E6D5F6B02FB04335C6E0EF0BEF9D8
:106468003D4206D1C4F30A1008B9354200D10130C3
:10647800F8BD0020FCE700BF0000045041F671326F
:10648800034BDA63012203F50053DA60704700BF5B
:106498000000035041F671320121044BDA6303F521
:1064A8000052D1600022DA63704700BF0000035039
:1064B800013825289ABF024B185C0020704700BF9E
:1064C800BCAE0100021E30B54FF000000CBF0C2519
:1064D800042547F60774084952B9831D51F823303B
:1064E800234023B101308542F6D14FF0FF3030BD53
:1064F80000F11203F2E700BF0080035038B5C2F381
:106508000625044602F0070241B942EA052242F490
:1065180040220634074B43F8242038BD114628464C
:106528000EF00DFB02462846FFF7C2FF123442EA7E
:106538000022EFE700800350044B1868421C02BF9A
:10654800034AD2F894001860704700BF78410020D1
:1065580000400050CB784A7810B55B010C7843EACC
:1065680082030A79234343EA02130C22424302F1CD
:10657800B0421363012C02BF8A78024B43F82020F3
:1065880010BD00BFD080035008B54FF0B0435A6823
:106598006AB958B15B680BB10EF000FB01210D4BD5
:1065A80059600EF0FBFA4FF0B043D96008BD5B6844
:1065B8000BB10EF0F3FA0028F0D10EF0EFFA4FF01D
:1065C800B0430222DA600EF0E9FA0122024B5A6067
:1065D800ECE700BF00100058002000584FF0B04111
:1065E8004B6810B50BB10EF0D9FA01220B4BC478E9
:1065F8005A608378934043EA8403447823430479B8
:1066080043EA0413447943EAC4038B60044B5A6099
:106618000378C3F10203CB6010BD00BF002000580F
:1066280000100058054B5B69C3F38512827003F0B4
:106638003F021B0B42700370704700BF00C0075039
:10664800014B986CD96C70470080E00F0120034B18
:106658009B680A3303F01F03984070470080E00FDF
:106668000D4B984208D1A3F50033C3F88411C36DCC
:1066780043F08003C3657047084B984204D1A3F5E3
:106688001033C3F89411F2E7054B984204BFA3F501
:106698002033C3F8A411EAE70080055000C0055074
:1066A8000000065070B5054616461C4619B9032069
:1066B800FFF708FB0146402C1BD003D8DCB1202C87
:1066C8001BD070BD602CFCD1042303FB06F25308D9
:1066D80003EB4113B3FBF2F3094A203B02EAC3037D
:1066E800AA6822F06002AA60AA681443AC60EB6151
:1066F800E7E70623E9E71023E7E70823E5E700BF14
:10670800F8FF7F00012200F580535A6040F6AA6323
:1067180041F20502436100230D498360C365C260ED
:1067280000F500520361C361C3649164094983653C
:10673800884203D103650023436506E00649884281
:10674800F8D001F580418842F4D0012353607047A6
:10675800FFFF01000080055000C0055070B50D46D0
:10676800FFF7D0FF012300F580567360AB7C044629
:106778001BB1836843F080438360EB7C1BB12046E8
:10678800297DFFF76DFF2A8A6B7B20461343EA8930
:106798001343E3602B7BD5E90112FFF783FF6B7D81
:1067A8001BB1A36843F48033A360AB7D1BB1A3681E
:1067B80043F40043A360EB7D2A7E1B07120502F415
:1067C800E00203F0E0431343A365697E1F4A8B1E72
:1067D800012B1F4B1DD8944217D002F580429442DA
:1067E80015D002F5804294420CBF02224FF0FF32CE
:1067F80003EB4213022041F2AC520329985020D1F6
:106808000423F3652B78636170BD0022F0E7012251
:10681800EEE7944211D00F4A944210D002F580421C
:1068280094420CBF02224FF0FF3203EB42130220C6
:1068380042F2AC5201299850E1E70022F5E7012223
:10684800F3E7042204F50053DA65DBE7008005501E
:1068580000C0035000C0055038B50446054D13F07C
:10686800BFFD0FCC0FC594E80F0085E80F0000208E
:1068780038BD00BFC832002047F6FF739A42F0B512
:1068880072D0022972D83A4B5B5C022B6ED8394D14
:10689800DF0005EBC304A17815F83330012938BFB0
:1068A8000121012B13D10025E078401AA84202D813
:1068B8000844C0B2F0BD431B6668A0EB530336F929
:1068C80013609642D4BF1D4603F1FF30EEE76068BF
:1068D8000028EFD0B0F90040944204DBB0F9024040
:1068E8009442B8BF144683883D44FF2B19BFC82281
:1068F8004FF0280CB0F90620B0F908C0A2EB040349
:106908000CBF0126002693FBFCF333446E781BB2C0
:106918009E4201DD002B01DA731E1BB24FF47A7C14
:1069280001339BB2071D5D1E2DB24FEAC50E00EB69
:10693800C505EA88AD689E4214FB025222EAE2725B
:1069480002F15C02B2FBFCF204DD37F8335001338C
:106958009542E8D200EB0E039888904228BF104673
:10696800884238BF0846A4E7FF20A3E70020A1E734
:10697800E2AE0100C83200200229F0B560D8314BE0
:10698800595C02295CD8304B13F83100012816D124
:1069980003EBC1039C78D878012C214638BF01212C
:1069A800904294BFC1EB0001C1EB0201001BCAB2C7
:1069B8008242C8BF00225B6833F91200F0BD002A8A
:1069C8003CD003EBC1035968002939D0987890422C
:1069D80002D3B1F90200F1E7DC78B1F90000944282
:1069E800ECD95C788B88013CA3F1FF06734201F176
:1069F8000405E4B2734101F10C07DEB2B44216D8C3
:106A080005EBC3034FF47A756A43B3F902405B6838
:106A1800D21A04EBD47302EB630292FBF4F29042B5
:106A2800CCDBB1F902009042C8DC10B2C6E737F8F7
:106A380033C05E1C9445E3D33346DEE70348BDE725
:106A48000348BBE7E2AE0100C83200200CFEFFFF9E
:106A58000080FFFF08B50448FFF7FEFEBDE80840C8
:106A6800012013F0E0BC00BFE8AE01000048704709
:106A7800664300207FB51422002101A812F09EFC75
:106A8800044B01A94FF0FF30029313F00CFD07B03F
:106A98005DF804FB006A18002DE9FF474FF0000875
:106AA8000E4617460446CDF80080002859D022B972
:106AB8000025284604B0BDE8F087002951D032F0FF
:106AC800030902F0030A1FD04FF0E063C0E9003861
:106AD80001230191C0F808800293C0F81C8049F096
:106AE800005301A903930EF0E7F8494620460EF03B
:106AF800EDF820460EF0B9F8054628B14A46414659
:106B0800304612F05BFCD4E7BAF1000FD0D04FF05A
:106B180000084FF0E063C4E900380123CDF804D041
:106B28000293114B204601A9C4F80880C4F81C80C0
:106B380003930EF0C1F8042120460EF0C7F8204652
:106B48000EF093F8054608B13A46D8E7009A4E4445
:106B5800EB00013522FA03F3AA4506F8013BF7D109
:106B6800A6E72125A5E700BF040000202DE9F04194
:106B7800012905460E4690461F4692B04AD8046839
:106B880024F04003802B02D0B4F5807F45D11C222D
:106B980000210BA812F012FC234A244B0121012EDC
:106BA80008BF13460A932B1D0193E408204B44F0B9
:106BB800005402910AA80394CDF810800591069319
:106BC8000797089101A909930EF06CF804A90AA87F
:106BD8000EF068F807A90AA80EF06EF829680AA846
:106BE800C9080EF073F810210AA80EF06FF80EF01D
:106BF80038F8A8B90AA80EF072F84FF098435A6C02
:106C0800D202FCD55C6D0EF02EF804F4702012B0A0
:106C1800BDE8F0816FF02000F9E76FF07100F6E74A
:106C28004FF0FF30F3E700BF00010004000101044A
:106C38001000002030B5154B87B00293144B039019
:106C4800049346F611030D46059300F023F8142823
:106C5800044616D168460EF0CDF84FF0A84303223B
:106C680002A95A6319601D619A63DA6B9207FCD115
:106C7800142C02D168460EF0CBF800F03BF804461D
:106C880001E00028E9D0204607B030BDE8320020F6
:106C980004000020144A38B5D2F8803243F00103CA
:106CA800C2F88032114B5B68C3F3080343B14FF05D
:106CB800A842D36B13F0430FFBD11424204638BDF0
:106CC8004FF0A843DC6B14F04304FBD1084D2B684C
:106CD8001BB90421284603F00DFA2B68013343F051
:106CE80000432B60EAE700BF0080005000ED00E0A1
:106CF800E8320020014B00205B68704700ED00E09F
:106D080030B58BB06C46554D0FCD0FC40FCD0FC4A9
:106D180095E8030084E80300514BD3F84C21110394
:106D280040F18380A3F5FE431C884FF6FF739C4215
:106D380008BF80248DF81940FFF7FEF9044484F356
:106D4800080448488DF81840FDF7FCFE6846FFF730
:106D58005FF93220FFF7F6F9434C4448FFF708F98A
:106D68004348FFF7F5F90DF0C7FE236F002023F025
:106D7800070343F003032367236F23F4505343F4BB
:106D8800806323670DF0BFFE3A4BD3F8FC20D20195
:106D98004FD4D4F8803023F0030343F00203C4F83F
:106DA8008030314BD3F8202122F0070242F0020252
:106DB800C3F82021D3F8802122F0030242F0010217
:106DC800C3F88021D3F8402122F0030242F00102E7
:106DD800C3F84021D3F8602122F0030242F00102F7
:106DE800C3F86021D3F8402222F0030242F00102E6
:106DF800C3F84022D3F8002222F0070242F0010231
:106E0800C3F80022D3F8082222F0070242F0010258
:106E1800C3F80822FFF7A4F84FF0E0220020136916
:106E280063F0040313610BB030BDD3F85041E4B2F2
:106E380080E7D3F8FC2022F08072C3F8FC20D4F855
:106E4800802022F0030242F00202C4F88020D3F826
:106E5800FC2042F08072C3F8FC20A2E7D4AF010006
:106E68000080E00F00F049020080005000B4C40424
:106E7800C0EA210100ED00E013B50024064A684687
:106E8800536F43F00103536700948DF80440FFF7F4
:106E9800C5F9204602B010BD004000500028ABBF25
:106EA80000F16040054B00F5614000F00F00ACBFF9
:106EB80090F80003185C0009704700BF14ED00E06B
:106EC8006FF00403502110B50A480B4C13F0800FE3
:106ED80003F1010206D123443D2A83F80013134627
:106EE800F4D110BD03F00F03043B03441976134695
:106EF800ECE700BF00ED00E000E100E0BFF34F8FDA
:106F08000549064BCA6802F4E0621343CB60BFF33D
:106F18004F8F00BFFDE700BF00ED00E00400FA0559
:106F2800002807DB01234109034A00F01F008340C2
:106F380042F82130704700BF00E100E0054B4211E4
:106F480053F8223000F01F0023FA00F0C04300F08D
:106F58000100704700E100E0014608B5EFF3108337
:106F6800DB0702D50122104608BDFFF7E7FF0246FE
:106F78000028F7D10846FFF791FF0146EFF3118388
:106F880013B1B0EB131FEDD2064B5868C0F30800DD
:106F98000028E8D01038FFF781FF88428CBF002214
:106FA8000122E0E700ED00E0002808DB01224309A8
:106FB800034900F01F008240603341F823207047E6
:106FC80000E100E00028ACBF00F16040064B4FEA4A
:106FD8000111C9B2ABBF00F5614000F00F0080F8A5
:106FE80000131954704700BF14ED00E000F00CB80E
:106FF80000F00AB800F008B800F006B800F004B8CD
:1070080000F002B800F000B872B61EF0080F09D000
:107018001EF0040F0DD0DFF850E0AEE8FF1F6FF050
:1070280002000CE0DFF840E0AEE8FF1F6FF00E0052
:1070380005E0DFF834E0AEE8FF1F6FF006006946B0
:10704800EFF309828EE8070086460848084C854514
:1070580001D3A54501D384F3088802F051FF84F3D6
:1070680008880EF08DFB0000001000204000002072
:107078000010002073B50024684600F0D9FA0C4BC4
:1070880000981C600B4B0C4D1C600C4E0C4B306078
:1070980018602C600DF0EFFF2046019B3268013B21
:1070A800DB0853802B6801332B6002B070BD00BF32
:1070B800F0320020EC320020F4320020FC320020B4
:1070C800F83200202DE9F04F0027924687B04A1C7D
:1070D8000E4614BF0C46082499460597002B00F06D
:1070E800B0801F60002800F0AE80073020F0070550
:1070F8000DF06EFB05AB31460290009352463B46BD
:10710800284600F09FFA059E804606B130B90298DD
:107118000DF064FB192007B0BDE8F08FDFF83CB133
:107128007788DBF80010FB00C0EBC7070139272F71
:10713800CBF800106CD9BAF1000F48D1854205F19F
:10714800080740D0214630460DF0E6FE044605907B
:10715800059B1F4438460DF08EFF059905F10F0376
:107168004A88C3F3CF03D21A7A80CA88BB8062B335
:10717800D31A9BB201EBC202FB8093808B88ED0887
:10718800A380BB880022314638466580E38000F042
:10719800D1FA237843F001032370DBF80030013380
:1071A800CBF800302B4A0298136808344344136024
:1071B800294A11688B4288BF13600DF00FFB00202D
:1071C800C9F80040A7E73446C2E7FA80D6E7F419C1
:1071D800204603930DF04FFF08F10702D2080599E6
:1071E8006280FA1DD208A280CA887AB1D200039BB5
:1071F800D01DC31A4344C3F3CF030A44E3809380EA
:10720800A388013FFF084F80CB80C2E7E280F7E701
:10721800BAF1010F19D106F10803B3FBF4F204FB2C
:107228001233A3B1214630460DF076FE044623788A
:10723800012243F0010331462046237000F07AFA18
:10724800B0E7222067E7212065E78542EAD1344686
:10725800EDE700BFF0320020EC320020F4320020CD
:107268002DE9F3470446684600F0E2F9002C00F0E7
:10727800AB800DF0ADFA14F8086CF30704D534F8B8
:1072880006ECBEF1000F05D10DF0A8FA012002B0FE
:10729800BDE8F0874D494E4D0A68D5F80080A2EB4D
:1072A800CE020A6034F8041C0EF1010308F1010251
:1072B800A4F1080C9BB22A60B9B3ACEBC10292F8F6
:1072C80000A0B2F806901AF0010F578806F00206DF
:1072D8001FD1FEB9A9EB0701012926D80EF1020337
:1072E8001F44BBB2C5F8008034F8026CFEB9013BFC
:1072F8009BB214F8081C6FF3000104F8081C002165
:1073080024F8061C53801378D18061F300031370AE
:1073180031E056B119448BB214F8081C6FF34101DF
:1073280004F8081C00219180DEE76246DCE70CEBDC
:10733800C608DDE900710F44B845D8D21CF836708C
:10734800414617F001072AD0013B9BB214F8085CAC
:107358006FF3000504F8085C002524F8065C5380E8
:10736800137865F300031370C2F107030B44C3F3EA
:10737800CF03D3808B8017490B681BB1934201D888
:107388005B8803B90A6014490B681BB1934201D3A7
:107398005B8803B90A600DF021FA002077E7A6EBB5
:1073A8000E06012ED0D8B8F80260A8F8027033444F
:1073B800B8F806702E689BB2013E1FB108EBC701F2
:1073C8002E60C3E72E6094E7222060E7F0320020A9
:1073D800F4320020FC320020F83200202DE9F84F6A
:1073E80004460D469146002A00F0188100231360D8
:1073F80040B9002900F0148101462846BDE8F84F3D
:107408000DF0CABD19B9BDE8F84FFFF729BF0DF057
:10741800DFF934F8063C07354FEAC30825F00705BD
:10742800A8450746A4F1080080F0858034F8022CAE
:10743800002A64D000EBC20A10F83220D2075ED4CA
:10744800BAF80210A8EB050616EBC10657D41F2E92
:107458003CDDC5F3CF0304EB050B24F8063C0133F0
:1074680024F8023C58460DF006FE34F8023CC6F3F8
:10747800CF06ABF80430BAF80630ABF8026013B3A5
:10748800BAF802209A1A1644B6B20AEBC303ABF84C
:1074980006609E8000225146584600F04BF950463F
:1074A8000DF0E9FD5F4AC9F8004013682B44A3EBCF
:1074B800080313605C4A11688B423AD838460DF0CD
:1074C8008DF9002525E0ABF80630E3E7574E0B446D
:1074D80032689BB2013A32605A1C24F8062CBAF87A
:1074E80006204AB102339BB20AEBC20224F8023CDE
:1074F800938001225146D0E724F8022CF9E7284668
:107508004A4600210DF048FD054628B138460DF0E1
:1075180065F92846BDE8F88F42462146D9F80000AB
:1075280011F0ACFE2046FFF79BFE05460028C5D0AB
:10753800ECE71360C2E76ED934F8023CA8EB050605
:10754800002B3AD000EBC30A10F83330DB0735D4F0
:10755800C5F3CF0304EB050B24F8063C013324F8EC
:10756800023C58460DF087FDBAF8023034F8022C78
:1075780003EBD603ABF80420BAF806209BB2ABF8AD
:107588000230BAB101339BB20AEBC202ABF8063043
:10759800938058460022514600F0CCF850460DF032
:1075A8006AFD204BC9F800401A681544A5EB080588
:1075B8001D6083E7ABF80620EBE79A46272EF0D943
:1075C800C5F3CF0304EB050B24F8063C013324F87C
:1075D800023C58460DF04FFD013E34F8023CC6F31C
:1075E800CF06ABF80260ABF80430BAF1000F0FD049
:1075F8000136B6B2ABF80660AAF804600B4A5846E2
:107608001368013313600022114600F093F8C8E7AD
:10761800ABF806A0F2E7C9F800404FE7222578E763
:10762800212576E7F0320020EC320020F4320020E9
:107638000249034A0160521A426070479043002091
:1076480000000120F0B506460020059F4C1C08BF2D
:1076580008213860BAB91F480568002D38D0B5F838
:1076680002E0DB0003EBCE0EC1F1000C2878C00766
:107678000BD52ABBE888B0B105EBC005B5F802E028
:1076880003EBCE0EF2E71448E6E7B645F1D35AB954
:1076980005F10804B4FBF1F001FB1044A0190CB18A
:1076A8007045E7D83D60F0BD08290FD06C880134DB
:1076B80005EBC404A01B00EA0C00201A8645F1D291
:1076C800A8880028EFD0A5EBC005D7E73046E9E742
:1076D8002846E8E7FC320020F8320020134B13B5A7
:1076E8001B6804460846FBB121B96846FFF7A0FFAE
:1076F8006CB900980378D90707D55CB9C3889BB1E2
:1077080000EBC3000378DA07F8D402B010BD084BC9
:107718001868EFE7012C07D183882BB1A0EBC300D1
:107728000378DB07F8D4F0E70020EEE7F432002016
:10773800F8320020F8B5154F05460C463B68144E44
:10774800B2B1994209D041B13368994204D129466E
:107758000120FFF7C3FF3060F8BD29460020FFF77E
:10776800BDFF33683860A342F1D0002CEFD0F3E7B7
:10777800994205D13D603368A34204D13560EBE7F7
:107788009842F7D3F7E7AB42F8D3E5E7FC3200209D
:10779800F8320020BFF35F8F074B5A6A22F4803219
:1077A8005A62D3F8942022F00102C3F89420BFF360
:1077B8004F8FBFF36F8F704700ED00E038B5FFF7CC
:1077C800E9FF264A2648D2F8C030264D23F0FF03A9
:1077D80043F0A003C2F8C030234B04689D4204F173
:1077E80001011BD1214BC2F89840C2F89C30204BB4
:1077F800C2F8A0300160BFF35F8F0522174BC3F8B2
:1078080094205A6A42F480325A62BFF34F8FBFF312
:107818006F8FBFF34F8FBFF36F8F38BD23F01F03F8
:10782800203BB3F1005F09D3C2F898400F4C43F0F6
:107838000103C2F89C40C2F8A03001600D4B0168FA
:10784800064A23F01F0343F00303C2F89810C2F856
:107858009C30094B0131C2F8A030CBE700ED00E0C5
:107868000033002040410020A03F002003000020FA
:10787800010001205F410020E1FF00202DE9F041D7
:107888000D461146DFF8E080D8F80040B4F5807F57
:1078980034BF00271A27FFF77DFF1F292ED90021A3
:1078A800C2061CBF20F01F0020302E4EEB0618BF6A
:1078B80025F01F05CBB29C4235D8D6F8C03020F051
:1078C8001F0023F47F4343F48073C6F8C03040F0B0
:1078D80003040CF07DFFD8F8003025F01F0141F0BB
:1078E8000301C6F89830C6F89C40C6F8A0100CF002
:1078F80075FFD8F800300133C8F80030BFF35F8F48
:107908000522184BC3F894205A6A42F480325A620E
:10791800BFF34F8FBFF36F8FBFF34F8FBFF36F8FDF
:107928003846BDE8F081C6F89830D6F89C30D6F8CD
:10793800A02023F01F03984222F01F0201D1954294
:107948000BD0904201D89D4209D2D6F89830013127
:1079580023F0FF03C6F89830ACE70027CEE72827C6
:10796800CCE700BF00ED00E00033002030B50E4C3E
:10797800416123688BB9206083600DE0891A9A6899
:107988001D4641616AB113465A698A42F6D935B132
:10799800A860521A83605A6130BD0025F4E7206060
:1079A800F7E798608260F7E70C33002038B50DF0F0
:1079B80090FB0025084B094C1A682368C31A2AB1A2
:1079C80023B15169994203D3C91A5161206038BD66
:1079D80055615B1A9268F2E70C33002008330020E7
:1079E80038B5134D2B685B6993B1124A02201468AD
:1079F8001C440DF075FB204600F050FA00230E4998
:107A08002A680B70D088800709D501230B7038BD10
:107A180002200DF065FB022000F08AFAEEE792687A
:107A2800002AF4D050690344012BEBD9EFE700BFDB
:107A38000C33002008330020303D002070B5164676
:107A48009DF81420C0E903360271049ABDF8183075
:107A58000260002204460D468260C380EEB90DF034
:107A680038FB2844A0619DB12E460CF0A6FE0546C1
:107A7800FFF79CFF31462046FFF778FF104B1B6845
:107A8800A34201D1FFF7ACFF28460CF09AFE02E0B2
:107A9800E36865617BB9002070BD0DF01AFB3044C6
:107AA800A061002DE0D1E3686561002BDDD02046A0
:107AB80021689847D9E7204621689847EBE700BF37
:107AC8000C33002000220C490B687BB183420AD199
:107AD80083687AB1936083681BB15A6941690A4423
:107AE8005A61002070471A469B68EEE70028EFD0DD
:107AF800022070470B60EEE70C33002070B50CF0E5
:107B080067FE144E05463478FCB9134B1C60134BC2
:107B18001C60134B1C8000F083F901200DF0E0FA83
:107B280000F028FA0F4B0246186020B928460CF0DE
:107B380055FE232070BD234640F2E7310A4803F082
:107B4800A5FE0A4B18600123337028460CF046FE48
:107B58000020EFE7313D00200C33002008330020DF
:107B6800303C00201033002018FCFFFF04330020B5
:107B780070B5044640B30CF020FE144E0546FFF7DE
:107B880015FF3068A04209D02046FFF79BFF044646
:107B9800B0B128460CF015FE204670BDFFF792FFE5
:107BA80004460028F5D133683BB9022000F0A8F953
:107BB80028460CF006FE0024EEE7FFF711FFF7E772
:107BC8003368002BF4D1F0E72224E5E70C330020DA
:107BD80038B50C460546A8B1A1B100230B700CF0CE
:107BE800F7FD0121084B1B6833B90CF0F7FD0020A5
:107BF80038BD9D4204D121702278002AF9D0F4E7DB
:107C08009B68F1E72220F3E70C33002070B50CF0F5
:107C1800DFFD06460DF05DFA084B04461D8801207D
:107C2800ADB20DF069FA18B10DF053FA04460135FA
:107C380030460CF0D3FD2046294670BD303C00206C
:107C4800F8B50C4B05461B680E4683420FD300243B
:107C580040F2E7302146084B4FF47A721F68002340
:107C6800E5FB070103F012FE30602046F8BD212035
:107C7800FCE700BF0433002010330020014B1868D4
:107C8800704700BF0433002038B5154B14468342B3
:107C9800144B8B4121D3144B1A68F2B14FF47A7507
:107CA800A0FB050305FB0131531E134211D1B2FAA3
:107CB80082F2C2F11F05531CD24301FA03F3E840D4
:107CC80021FA02F218431043E940C4E900010020F8
:107CD80038BD002303F0DAFDF7E72120F8E700BFFD
:107CE800EFA7C64B3789410010330020C2072DE9A2
:107CF800F04704460BD5474A138801339BB21380DB
:107D0800FFF754FE444B1B680BB1FFF769FEA3074E
:107D18007ED50CF05DFD4FF0000905464E46FFF795
:107D280045FEC8463C4F3C680CB163698BB10022E4
:107D38003A4B012E1A7003D119F0020F18BF1E70AA
:107D4800002C61D0FFF74CFE2846BDE8F0470CF048
:107D580045BD23465A693AB91A792179914288BFB3
:107D68001C469B68002BF5D128460CF037FD256989
:107D7800DDB10DF0AEF9A269A0EB02094FEAE97393
:107D88004D4578EB030311DA23691344A361E368D3
:107D9800B4F80690013613B12046216898470CF0D4
:107DA80017FD0546FFF702FEBDE7A9460CF010FDDA
:107DB80082462046FFF786FE50460CF00FFD2369E9
:107DC800002BE4D0A38BB5EB090533B1E28B134448
:107DD8009BB2B3F57A7F0FD2E3830CF0F9FC8146AE
:107DE80029462046FFF7C2FDA36922694846134485
:107DF800A3610CF0F3FCCAE7A3F57A73E383A369E4
:107E0800013D013BA361E8E7022000F079F89BE718
:107E1800BDE8F087303C00200C3300202F3D0020C7
:107E28001FB500241A4B18689A880290D3F80600E8
:107E38009B7A00901748ADF80C208DF804300DF0AF
:107E480021F802A88DF808408DF80C40FEF7C6FB13
:107E5800694601208DF80040FEF77CFB4FF0B043E7
:107E68001F219A6922F01F029A610B4A51619A6A8E
:107E780012F00802FBD11A620120FEF785FB0A20E6
:107E8800FFF792F80A20FFF74BF804B010BD00BFC7
:107E980034B001002CB001000020005810B5044691
:107EA8000CF08BFC4FF0B042936A1907FCD4136AAC
:107EB800116C5269120704D4CA1A032A01D89942CC
:107EC8000ED1E21A022A98BFDC1CB4F1FF3F38BF7A
:107ED800013C4FF0B0431C649A6942F008029A6171
:107EE8000CF06FFC054A13783BB14FF0B041CB6BF7
:107EF80043F00203CB630023137010BD76430020C8
:107F0800820700F001030AD50121084A43F008035B
:107F180011704FF0B041CA6B22F00302CA634FF0F0
:107F2800B0418A6922EA03038B61704776430020D7
:107F3800830742BF0822014B5A617047001000585E
:107F480010B50CF045FC4FF0B04304465B691A07C6
:107F5800074A03F0010003F00D0348BF40F0020098
:107F68005361FFF7C3FE2046BDE810400CF036BC55
:107F78000020005807B5044B01A918790CF07DFFC3
:107F8800019803B05DF804FB20B0010007B500B903
:107F9800FEE7037F03B1FEE700900122044B40682F
:107FA80012F04AF900B1FEE703B05DF804FB00BF28
:107FB800E951010030B5044685B0084604B9FEE72A
:107FC800237F03B1FEE703A96568FFF739FE48B9C7
:107FD8000123064ACDE900030399234628460DF0FC
:107FE80054F800B1FEE705B030BD00BFEF51010005
:107FF800154910B5A1F148000DF0A8F8A0B1124933
:10800800A1F148000DF0A2F80446A8B90F49A1F162
:1080180048000DF09BF8044668B120460C490DF065
:10802800EAF820460949F4E70849A1F148000DF0AB
:108038008DF80028E3D110BD204606490DF0DBF885
:1080480020460149DEE700BFAC330020643300203E
:108058003DA60000F5A50000014B1B69184700BFAD
:10806800643300200C4B70B515461A680C4602B9EB
:10807800186000236119094A5B41C2E900130CF03A
:10808800A7FB06462A46214603480DF0C6F83046A7
:10809800BDE870400CF0A2BB64330020E81000205B
:1080A80010B50CF095FB044603480DF06BF820461C
:1080B800BDE810400CF092BB64330020014B1B69F3
:1080C800184700BF1C33002070B50CF076FB05463E
:1080D80012F0FCF9044608490B6808608342074B14
:1080E800284682BF1A6801321A601E680CF069FBC4
:1080F8002046314670BD00BF1833002014330020DD
:10810800094B70B516461A680D4602B918600CF08E
:108118005FFB04463246294603480DF07EF82046A8
:10812800BDE870400CF05ABB1C33002010B50CF0B1
:108138004FFB044603480DF025F82046BDE81040E3
:108148000CF04CBB1C33002008B5FEF7F5F9034BC7
:108158001860BDE808400CF01BBD00BF1C340020AF
:108168000E4B1B68D9070FD45A060FD413F0180FFB
:108178000ED199070ED49A060ED440F28472134297
:1081880014BF062007207047002070470220704760
:108198000820704701207047032070471C340020D6
:1081A8000E4B10B51C68A0235C4308B9FFF786FF87
:1081B8000B4B1B68B3FBF4F204FB1233B0FBF4F275
:1081C80004FB12002344181AB0FBF4F304FB130059
:1081D800A023B0FBF3F080B210BD00BF2434002010
:1081E800203400202DE9F04104460D460DF073FCC3
:1081F800002855D020460DF073FC002850D0E77EAB
:1082080017F010074CD1FF2D00D1FEE720460DF0E6
:108218003DFCA8B120460DF074FC0646002843D06A
:108228003C22224B02FB05335B785A1E90420DD04C
:1082380083420AD00133984234D00820BDE8F08147
:108248003C221A4B02FB05335E7801274FF03C08AD
:108258000C2318FB053303EB0713144F3B44A360AF
:10826800E37EDB0716D420460DF010FC28B108FB8E
:1082780005F3FA18FE5453689360314620460DF012
:108288004DFC3C2303FB0577796820464B1C7B603B
:108298000DF046FC0649204601EBC5010DF093F9A7
:1082A8000020CBE70227D1E70120C7E728340020C8
:1082B800443D002010B5084C206811F0B6FF012895
:1082C80004D001220021206811F0B1FF2068BDE828
:1082D800104005F0FFBC00BF6834002038B50446E4
:1082E8000CF076FA044B1D680CF078FA254214BF9E
:1082F8000120002038BD00BF6434002008B50220EA
:10830800FFF7ECFF28B1034B1B681B681878C0F314
:10831800401008BD08350020074B10B51B68022027
:108328001B681C88FFF7DAFF20B104F00704E31E7E
:108338005842584110BD00BF0835002038B50D46D9
:1083480004460CF045FA064B1A682DB114431C601C
:10835800BDE838400CF042BA22EA0404F7E700BF4F
:108368006434002070B50446184E23680D46306802
:1083780023B3972112F036F9024600B1FEE72168CF
:10838800306805F013FF2379834200D0FEE701220D
:108398003068114612F058F900B1FEE70CF01AFCEB
:1083A800032204461146306812F03EF97F2D0CD0A6
:1083B80029462046BDE8704001F0A2B806F0C0F991
:1083C80000B1FEE7FEF752FBEAE770BD6834002013
:1083D8001FB50023CDE901330393FF238DF8043043
:1083E800074B014601AA186811F043FF044628B953
:1083F80004480DF0DFFB204604B010BD0124FAE765
:10840800683400203FB0010008B5074B186811F028
:1084180076FF30B1054BB3FBF0F083B20BB11846D1
:1084280008BD0120FCE700BF6834002040420F006F
:1084380008B5FFF763FF00B9FEE70820FFF74EFF16
:1084480000B9FEE701214FF48060FFF777FF0021B4
:108458000748FFF773FF00210820FFF76FFF054B60
:10846800186805F037FC0022034B1A7008BD00BFDE
:108478000200010068340020423D002010B5044687
:108488000220FFF72BFFC0B1B4F5007F4FF00101C8
:1084980010D12046FFF752FF00211020FFF74EFFB2
:1084A80006480021FFF74AFFBDE81040044B186852
:1084B80005F010BC4FF48050F0E710BD0A00010031
:1084C8006834002013B5084C204611F0C3FEFFF7AE
:1084D8009BFF0023C100009301222046034B11F0AB
:1084E800ABFE02B010BD00BF68350020F984000063
:1084F80038B5184C184B21681B68184DCB1A5942CF
:108508005941286811F0BBFE10F5007F0AD0144BC2
:10851800002893F90020B8BF033040F38700824257
:10852800B8BF187022682AB1FFF7CCFF2368013B57
:10853800236038BD0A4B286893F90010094B19705D
:108548000221094B1970802111F017FF0028F0D083
:10855800FEE700BF84350020803500206834002005
:10856800794300204F3E0020503E00202DE9F8437B
:10857800904601220C46244B244F254E254D187059
:1085880000213868327011F052FE2B79E4B2A34210
:1085980037D86B79A34234D3DFF88890D9F8003004
:1085A800AB4205D07F212846FFF7DCFEC9F8005012
:1085B800DFF87490D9F80030B3B98025164B1D70D8
:1085C800FFF722FFC000B8FBF0F0144AC9F800001A
:1085D800106029462A46386811F0CFFE38B17F224C
:1085E8000F4B1A70022333700120BDE8F883204630
:1085F800FFF7EEFE0028F7D1FFF764FF0028F4D05C
:10860800EDE70720F1E700BF4E3E00206834002068
:10861800503E00207034002079430020803500202F
:108628004F3E00206C340020843500202DE9F04FA7
:108638000546900217461E46DDB040F1DB80FFF785
:108648003DFD3B4B824607A9186811F025FFBDF890
:108658001EE0BEF1020F40F2CD803CAC0DF11C0CC7
:10866800BCE80F000FC4DCF80030BEF1270F236010
:108678000AD92723BDF82020ADF8F230262A82BF78
:10868800ADF8F43000233F933CA91CA80DF01CF86A
:108698009DF8F240002C00F0AD800DF171030C93B1
:1086A800099B0DF150091B780CA8ADF834300DF179
:1086B800F103C9F800300DF002FADFF888800028CD
:1086C80000F0CA8104A90CA80DF0E8F998F8004058
:1086D8005CB19DF8184044B1022C22D1002004A9B5
:1086E80000F0F6FFC443C4F3C034124A124903AB86
:1086F80092F90020097804A801F0B8FD0F4B8046D4
:1087080010B3186810B10E4801F006FE83464246C1
:108718000B4803A901F018FE00EB0B085FFA88F874
:1087280018E0BDF81010002000F058FFDAE700BF8D
:10873800683400204C3D00204D3D002024340020AA
:10874800323D00204D3E00201B681BB1BA4801F0A5
:10875800E3FD804643462146B74ACDF800900CA871
:1087680001F0C0FD002845D1B44BD3F80080B8F122
:10877800000F12D0BDF83430BDF81E205B0103F5A0
:10878800F073A3EB421303EB0A00FFF709FD1FFA8E
:1087980088F1024648460DF09CF914A80DF09BF9A3
:1087A80020B1002114A8FFF71DFD18BB07A80CF085
:1087B8007DFFF8B9DDE90983BDF8202014A8002A57
:1087C80008BF98460DF087F928B198F8003043F0B3
:1087D800040388F800302CB198F8003063F07F0368
:1087E80088F80030B9F8042028463CA98DF8F02014
:1087F80011F04DFFF90107F0807240F189810220E4
:10880800FFF76CFD68B100211020FFF797FDFFF717
:1088180075FD0446002800F06F8101210820FFF74C
:108828008DFD2020FFF75AFD07F40051044600286B
:1088380000F07F8121B101214FF40040FFF77EFD58
:1088480017F4404F06D0002148F22000FFF776FDCC
:10885800FFF730FD3A0740F199800023DFF8EC81FB
:108868000321D8F800001CAA149311F011FE014648
:10887800002800F0C7819DF87030072B40F0C281B6
:10888800D8F800003CAA11F00AFE002840F0BA818E
:10889800BDF872B01E9B0BF101091B781FFA89F90C
:1088A8004B4540F0AF81ABF103037B2B00F2AA816B
:1088B8001CA80CF0FBFE002840F0A481BDF8743021
:1088C800002B40F04E811F9B1C789DF8FD30002B3B
:1088D80000F0498104F00703022B40F09381DFF890
:1088E80074A11CA9DAF800000CF0EEFEAAF80490B6
:1088F800FFF704FD002842D0514BDAF800201B682E
:1089080092781B689B789A4239D19DF8F630002BF3
:1089180000F078810BF10203D8F800003CA9ADF80B
:10892800F43011F0BEFD002840F06C819DF8FE3057
:10893800DDF8F0B08AF815309DF8FF308AF820008D
:108948008AF81630FFF7C0FB4FF00009834528BFAF
:1089580001F1FF3119EB0B03CAE902314FF48070C2
:108968000121FFF7EBFC49463648FFF7E7FCFFF724
:10897800D3FC20B1E30642BF0122334B1A70FFF744
:10898800CBFC18B9D8F8000005F0A4F9BC014FF0E9
:1089980000080CD52C4C41460420FFF7CFFC237867
:1089A8002BB12A4B186805F095F984F8008017F068
:1089B800084F03D000210420FFF7C0FCB80003D5FE
:1089C80000210420FFF7BAFCB90705D50820FFF7F6
:1089D80085FC08B1FFF72CFDF20540F11B81284604
:1089E80011F00FFC34280AD000F22381142806D095
:1089F80000F20D81421ED2B2042A00F20B81144803
:108A08000021FFF79BFC0420FFF768FC18B1002148
:108A18000420FFF793FC0220FFF760FC18B14FF425
:108A28000070FFF72BFD0820FFF758FC002800F026
:108A3800F180FFF7FDFCEDE0323D002024340020FA
:108A4800083500200A000100423D0020683400205B
:108A58006000010030110020012C98F8003018D176
:108A680003B328463CA911F00FFE034600283AD16B
:108A78009DF8F830032B2BD09DF8F830022B7FF4AB
:108A8800B9AE0020BDF8F01000F0A8FD002824DAE7
:108A9800B0E6002BE5D19DF8713003F00703012BF8
:108AA8003FF4A8AE284611F0EDFD10BB07A80CF066
:108AB800FDFD00287FF49EAEDDE90932BDF82010E7
:108AC800002908BF13461A7862F07F021A7091E6EF
:108AD8003CA900F0FDFD0028CEDB284611F0D2FDB0
:108AE80003460028E2D0022B05D155480DF05FF867
:108AF80080E60228F9D0FEE7524B186805F0EAF83C
:108B080001214FF48070FFF719FC21464E4886E694
:108B180006F002031A4304D04FF40070FFF7AEFCCE
:108B28007FE607F0A8421A433FF47BAE4FF480502B
:108B3800F4E749B101214FF48030FFF7FFFB2146EC
:108B48004020FFF7FBFB85E606F020030B433FF4CC
:108B580081AE4020FFF7F2FB4FF40060FFF78EFC78
:108B680078E61E9BB0E6394B1B7813B9B9F1040FB0
:108B780048D09DF8F630002B44D00BF10203D8F80A
:108B880000003CA9ADF8F43011F08BFC002839D175
:108B98002F480CF07BFEA8BB2E4814A90CF038FA1D
:108BA800824678BB149868B31CA90C300CF08CFD75
:108BB8001499274881F80090BDF804314B709DF84E
:108BC800FE30CB709DF8FF308B703C9B81F804A081
:108BD8008B600CF0FCFDA8B114F0200404D0012136
:108BE8000420FFF7ABFBD1E6DFF86C9099F8003072
:108BF800002B3FF4CBAED8F8000005F06BF889F8ED
:108C08000040C3E6149913480CF01BFABEE624286A
:108C18003FF4F5AEB30504D500222846114605F009
:108C2800F1FA16F0C00F08D15DB0BDE8F04F0CF0B6
:108C3800A6BD00F0EF02442AEAE75DB0BDE8F08F78
:108C48005CB001006834002002000100433D0020B0
:108C58001C3500200C350020423D002030B50C4664
:108C6800154A85B01068516802AB002C03C304F1A3
:108C7800FF350DD1FDF7E4FC2B46CDE9000102AA32
:108C8800073412F8011D03F8011FA342F9D110E0BF
:108C98002A460A4B0A4913F801098B4202F8010FC8
:108CA800F9D1082220460DEB020110F05DFB0028E7
:108CB800E0D005B030BD00BF7BB001000900E00F77
:108CC8000100E00F002310B50C461A4607480CF0C7
:108CD80071FF2146002000F075FC054B002221465B
:108CE800186811F081FC00B1FEE710BD84B00100E6
:108CF8006834002030B5134B87B001F1080414F82C
:108D0800012D8C4203F8012BF9D100256379A27952
:108D1800E17905952078049060780390A078029016
:108D2800E07801902079009007480CF043FF074B4A
:108D38002A462146186811F063FC00B1FEE707B027
:108D480030BD00BF443D00209DB0010068340020C4
:108D580010B50C46002206480CF02CFF054B0022EB
:108D68002146186811F046FC00B1FEE710BD00BFAF
:108D7800BFB001006834002008B50120FFF7AEFA43
:108D880010B902480CF016FF002008BDD5B001004C
:108D980008B50120FFF7A2FA20B103480CF00AFF3A
:108DA800002008BD0D20FCE7F0B0010010B502203E
:108DB800FFF794FA044650B906480CF0FBFE202051
:108DC8002146FFF7BBFAFFF775FA204610BD0520CC
:108DD800FCE700BFD5B0010070B50F4C0D462379F4
:108DE800834217D86379834214D30C4E3368A34265
:108DF8000CD00B4B01220021186811F018FA2946F3
:108E08002046FFF7AFFA3460002070BD084600F036
:108E18005BFBF9E70720F8E7703400206C3400208A
:108E28006834002038B5044602200D46FFF756FA8C
:108E3800D8B9104B1B78012B17D0204600F080FBC7
:108E480001462846FFF7C8FF044660B92846FFF7E1
:108E5800BFFA044658B901462020FFF76FFA064BBF
:108E68009D71064B9D71204638BD0D24FBE70124FA
:108E7800F9E700BF503E00205811002030110020B3
:108E88002DE9F04188B00D4617461E4600F058FB04
:108E980004461B48FFF722FA20B10124204608B0F7
:108EA800BDE8F08121462846FFF796FF0446804634
:108EB8000028F3D101212020FFF740FAFF23CDE954
:108EC80001448DF8043001230E48ADF81C302946C2
:108ED800006801AB04AA03948DF814408DF81E4075
:108EE8000497069611F0C7F9044620B9064B9D7100
:108EF800064B9D71D2E741462020FFF71FFACCE7C9
:108F08004000010068340020581100203011002072
:108F1800F0B5022089B0FFF7E1F900B9FEE73A4C55
:108F2800236803B9FEE71020FFF7D8F92368374D07
:108F38009B880DF10B018DF80B30012328681A4628
:108F480011F0A0FA9DF80B202168023A0023096865
:108F580092B2286811F096FA2D4B05AE93E80700F7
:108F6800236886E807001B6820201F78C7F340178E
:108F7800FFF7B4F948B100210122286811F057F928
:108F8800002148F22000FFF7D9F92268536903BB92
:108F98001020FFF7A3F9A0B122681E4B117E99702B
:108FA8001D490978D970917900963A46286811F0D8
:108FB8005CF938B34FF48050FFF760FA0CF0DFFB30
:108FC80020E0216833463A468979286811F04BF940
:108FD800EFE7116911480B440021ADF810109621F4
:108FE80081809179CDE90006A3F59B7303933A46F6
:108FF800286803AB11F03BF90028DBD101214020A0
:10900800FFF79CF909B0F0BD08350020683400204E
:1090180064B1010088410020774300207C41002092
:109028002DE9F0410C46074600F08AFA324B01461A
:109038009C4200D0FEE72268304B9A4200D0FEE7FF
:10904800A079FFF7C9FE0546002852D10220FFF794
:1090580045F900B1FEE729464FF4F850284EFFF7CE
:109068006DF9E17E84F820503460264C1020C1F35D
:109078008001FFF763F9236863B1D6F80080D8F858
:1090880014303BB911F022FA40F6B8323368C8F808
:1090980010005A61D4F80080B8F1000F0FD034687E
:1090A800E37EDB070BD4D4E904031844A030FFF7B0
:1090B80077F81FFA88F1024620460CF00AFD30685E
:1090C80090F82010FFF78EF80BF082FB0446012180
:1090D8000220FFF733F9FFF71BFF20460BF07EFB5A
:1090E8004FF48050FFF7FAF818B1384602490DF0EE
:1090F800B0FF2846BDE8F081081100204E3D002051
:10910800083500202434002000487047081100204A
:1091180038B5154B02209D79FFF7E0F808B17F209C
:1091280038BD124C2378002BF9D110222946FFF7BD
:109138001DFA0028F3D111F0C9F905462378012B4F
:1091480005D111F0C3F9431BB3F5967FF6D3237805
:10915800022B0ABF064B7F2018784FF0000308BF88
:1091680040B22370DCE700BF58110020503E0020B9
:109178004F3E0020014B1878704700BF433D002048
:1091880008B5044B1970044B186811F03FFA00B188
:10919800FEE708BD433D002068340020014B1970EC
:1091A800704700BF4D3E002010B50C4649B1064B34
:1091B800186805F011F80A2390FBF3F020700020DE
:1091C80010BD0720FCE700BF6834002021B1034B25
:1091D80000201B780B7070470720704777430020EA
:1091E800014B002019707047774300200020064B80
:1091F8001870064B1B782BB94FF47A7301205A4329
:10920800FFF7B4B90520704778430020503E00208E
:1092180010B50C460BF0DCFA024B5C60BDE8104060
:109228000BF0DCBA28340020F8B51746DDE90665EE
:109238001C460BB106B105B9FEE70021FFF7E8FFB0
:109248002346124A57700C3204F110071446186866
:109258005968083303C4BB422246F7D10C4C334645
:109268001036224618685968083303C2B3421446B8
:10927800F7D1084C2B461035224618685968083330
:1092880003C2AB421446F7D1F8BD00BF2834002012
:10929800443400205434002010B50C460BF098FAE2
:1092A800044B5A68A24238BF5C60BDE810400BF01E
:1092B80095BA00BF28340020014B00201960704780
:1092C80024340020014B1960704700BF203400206F
:1092D8002DE9F04706466A4FDFF8D88138460CF08A
:1092E800C6FA002838D04FF4F850FEF7F7FF08B355
:1092F8004FF48070FEF7F2FF624F0546002800F039
:109308008B803B6800211B684FF480701B785E4D92
:1093180013F0200F08BF00250024FFF70FF80023E3
:1093280039682A46C1E90433304623460DF098FED1
:109338000CF025FA554B1B78012B40F09E80544BBE
:109348001A78022A40F099800022524C1A70237829
:10935800FF2B40F08680FEE788F8000038460CF0C6
:109368006BFA054600B9FEE74B4C037BE27DC3F37D
:10937800800363F34102E275037B3C2103F0FB03A6
:109388000373E27DDB0963F30002E275037B03F0FC
:109398007F0303734378A371034613F80C2BA28051
:1093A800236090F903303D4A637513708278A27583
:1093B8003B4A137003793B4A84F820304B43D11859
:1093C800D35CD0F8089023758B682361FEF77CFE88
:1093D800814528BF01F1FF31C4E902919EB194F89B
:1093E8002090DFF8B4A050460CF09BF958B95146CC
:1093F800304698F800200DF025FE94F8203013B977
:10940800B9F1FF0F06D0294627480BF01AFE0CF0D9
:10941800B6F963E79946E6E74FF40070FEF75EFF9A
:10942800044658B129464FF40070FEF787FF0F2411
:1094380021461E480CF0C1FB002570E74FF4806000
:10944800FEF74CFF014630B121464FF48060FEF72D
:1094580075FF0E24ECE74FF48050FEF76FFF0B24E6
:10946800E6E7134B3046197849B20DF005FEFF23A5
:109478002370BDE8F0470CF082B9BDE8F08700BF63
:109488001C35002008350020301100204E3E0020F9
:10949800503E002078430020581100204C3D002009
:1094A8004D3D0020283400200C3500200EB101006D
:1094B8004F3E0020CD3D0020024B0146186811F0B8
:1094C800EEB800BF6834002008B5054B00EB8000FB
:1094D8004100186810F088FF00B1FEE708BD00BF22
:1094E80068340020102208B57F2103480FF066FF7A
:1094F8007F22024B1A7008BD523E0020513E0020C8
:1095080070B50E4D064628680C4610F056FFFF2829
:1095180008D104EB840464003146286810F04FFF3A
:1095280028B1FEE7286804F057FE0446F4E7214610
:10953800286810F059FF00B1FEE770BD68340020BC
:1095480007B50D4B0DF10601186810F0DCFE0B4B4A
:10955800BDF8061093F90020094B7F2A0B4413F934
:109568000B0C05D17F2808BF062003B05DF804FB6B
:109578009042A8BF1046F8E768340020513E00200A
:10958800523E002008B5A1F10B030F2B09D8064B5A
:109598000B4403F80B2CFFF7D3FFFFF795FF0020D0
:1095A80008BD0720FCE700BF523E002008B5044B69
:1095B8001970FFF7C5FFFFF787FF002008BD00BF40
:1095C800513E0020034B0A4623F81010014602487A
:1095D8000CF0F0BA823C002070B101000C4B33F85B
:1095E800103000EB800019440A4B89B203EBC0032A
:1095F80000201A888A4201D19A783AB901300A289B
:1096080003F10403F5D14FF0FF30704700B2704703
:10961800823C00205A3C002038B50D460024114BEE
:1096280013F82420CAB101340A2CF9D14FF0FF34C1
:109638002B46224600210C480CF0BFFAA3B2092B96
:109648000DD80A4A00201288094B1544012223F834
:10965800245003EB84039A7038BD24B2E8E7032052
:10966800FAE700BF5C3C00208EB10100823C00207C
:109678005A3C002038B500200D46FFF7AFFF0446DE
:1096880002462B46084800210CF097FAA3B2092B92
:109698009BBF0020054B0A2003EB84029CBF9070FF
:1096A80023F8240038BD00BFBBB101005A3C00209C
:1096B80008B5002104480CF080FABDE808402822CB
:1096C800002102480FF07ABEEAB101005A3C00209E
:1096D80010B5104B4C8833F810200B8800EB800035
:1096E80023448C881C44CB8823441A440A4B92B2E6
:1096F80003EBC00300201988914201D1997839B948
:1097080001300A2803F10403F5D14FF0FF3010BDF2
:1097180000B2FCE7823C0020323C002038B50D4600
:109728000024154B13F8242012B301340A2CF9D164
:109738004FF0FF342B462246002110480CF03DFA2A
:10974800A3B2092B16D80E4B69881A882B880020DB
:109758000B441A44AB88E98813FA82F2094B11FAD0
:1097680082F223F82420012203EB84039A7038BD87
:1097780024B2DFE70320FAE7343C00200CB20100F2
:10978800823C0020323C002010B50020FFF7A0FFEB
:1097980004460246002108480CF00FFAA3B2092B30
:1097A8009BBF0020054B0A2003EB84029CBF9070EE
:1097B80023F8240010BD00BF33B20100323C002062
:1097C80008B5002104480CF0F8F9BDE80840282243
:1097D800002102480FF0F2BD53B20100323C0020D4
:1097E80010B50446054B186000F096F82046FFF7C0
:1097F8006FFD2046BDE81040FEF7FABB8835002013
:109808000122014B1A707047633E00202DE9F04792
:109818001D46194EDFF868901746B6F88020B6F84E
:10982800823099F800A09BB2A3EB0A032B4492B2B2
:1098380003F07F039A42804616D0B6F88200A5EB63
:109848000A0207EB0A0116FA80F00FF017FD002351
:10985800B6F8824089F80030A4B2A4EB0A042C447C
:1098680004F07F04A6F882402A4639464046BDE8FF
:10987800F047024BFBF754BF843C002015980000CA
:10988800643E00200122024B1A70024B5B6A70474B
:10989800623E00200080055070B500240B20FDF7C3
:1098A80083FB0B20FDF73CFB0D4B0E4E5A6ADA6C1E
:1098B8000D4D42F00402DA640C4B8022A3F880407C
:1098C8000B49A3F8824028683346FBF729FF334643
:1098D800802208492868FBF723FF204670BD00BF97
:1098E8000080055015980000BC420020843C0020F0
:1098F800E53E0020653E00200A460146044808B5BA
:109908000068044BFBF7A6FF003818BF012008BD0C
:10991800BC420020099800002DE9FF412F4C237814
:10992800002B51D00AF054FF002307462C48DFF8DB
:10993800BC802370006803AB02AA01A90BF056F89B
:1099480098F80060029D274CAE4213D2B4F882000A
:109958000199AA1B314414FA80F00FF08FFCB4F877
:10996800823088F8005015FA83F39B1B03F07F03BD
:10997800A4F8823038460AF031FFB4F88250B4F8BF
:109988008030ADB29BB29D420DD2B4F88000B4F8DD
:10999800801014FA80F0C1F1800189B20BF0E5FF64
:1099A8000023A4F88030B4F880309BB29D420BD0DD
:1099B800B4F88000B4F8801014FA80F0691A89B2FB
:1099C8000BF0D3FFA4F88050074B1A781AB1002285
:1099D8001A700BF0CCFF04B0BDE8F081623E0020A5
:1099E800BC420020843C0020633E0020643E0020EE
:1099F80008B500F0E1F9084A536A43F4702353624A
:109A0800EFF308834FF0CD31044A043B934200D270
:109A180008BD43F80419F9E700ED00E00000002054
:109A28002DE9F04F0024C3B0FC22214603A802947C
:109A380026460FF0C3FCDFF870B01A4FDFF86C80D1
:109A4800DFF86C90DFF86CA09BF8003033B914B1E4
:109A580002A800F01DFD43B0BDE8F08F06F0030238
:109A6800032A14BF43464B46019357F8043B02A808
:109A7800009352465B464FF48071204402F0AEF9E1
:109A88001BF8013B002BFBD1721C12F00305D6B268
:109A980003D02044C5B22C46D6E702A800F0F8FC53
:109AA800F9E700BF00100020C0B7010073B2010041
:109AB80060C9010076B2010040F60522604B2DE92D
:109AC800F0411B8893420ED8B3F5206F0DD840F2B1
:109AD8000252934217D040F2017293421DD040F2D5
